:020000040800F2
:10000000F8FF0120853F0B0821400B08A9CC05080B
:1000100021400B0821400B0821400B080000000084
:1000200000000000000000000000000021400B085C
:1000300021400B080000000021400B080D7E050840
:1000400021400B0821400B0821400B0821400B08E0
:1000500021400B0821400B087D2304088523040858
:100060008D230408952304089D2304083907000004
:100070004D070000610700007507000089070000B8
:100080009D070000B107000021400B0821400B082C
:1000900021400B0821400B0821400B08A523040830
:1000A00021400B08195D040821400B08095D040874
:1000B000295D0408395D0408495D040821400B08E6
:1000C00021400B0865190408C918040821400B08D1
:1000D00021400B0889100000DD11000031130000E1
:1000E000AD23040821400B0800000000155E040841
:1000F000ED5D0408255E0408DD5D0408C507000009
:1001000021400B0821400B08595D040821400B08D1
:1001100085140000D9150000695D040879670A0894
:10012000D9070000ED0700000108000015080000D5
:100130002908000021400B0821400B0821400B0832
:1001400000000000000000000000000000000000AF
:100150003D080000510800006508000021400B0820
:1001600021400B0821400B0821400B0821400B08BF
:1001700021400B0821400B0821400B080000000023
:1001800021400B0821400B082D17000081180000AA
:1001900021400B0821400B0821400B0821400B088F
:1001A00021400B0821400B0821400B0821400B087F
:1001B00021400B0821400B0821400B0821400B086F
:1001C00021400B0821400B0821400B0821400B085F
:1001D00021400B08856B0A0821400B0821400B08C1
:1001E00021400B0821400B0821400B0821400B083F
:1001F00021400B0821400B0821400B0821400B082F
:1002000021400B0821400B0821400B0821400B081E
:10021000355E0408455E0408555E040821400B085D
:1002200021400B0821400B0821400B080000000072
:1002300021400B0821400B080000000021400B0862
:1002400021400B0821400B0821400B0821400B08DE
:1002500021400B0821400B0821400B0821400B08CE
:1002600021400B0821400B0821400B0821400B08BE
:1002700021400B0821400B0821400B080000000022
:1002800021400B080000000021400B080000000086
:080290000000000021400B08F2
:020000040804EE
:100000004368426D30B49A61EFF31182502383F359
:1000100012884168D2B2856C0B68046D23EA05032F
:1000200023430B6082F31188436981681A68096869
:1000300022F00102D0E908541A60826A1D605C61F6
:100040005A60D0E90B429C60DA600023B0F86C2063
:1000500030BCCA620377704730B5FAB18E464FEABA
:10006000014C034600F1C005002419680C3353F815
:10007000042C43F8084C41EA0C0142EA0E02AB4260
:1000800043F80C1C43F8042CEFD1D0F8C03043EAFD
:100090000E03C0E93144C0F8C03030BD4FEA014E14
:1000A0008C46DEE710B40C4C6368002B11DD002099
:1000B00004F1080C0146DCF8AC3003F1C0025960D1
:1000C0000C339342FBD1013063680CF5867C83428C
:1000D000F1DC5DF8044B704704000020F0B5474C9C
:1000E00004EB401292F8543403B9F0BD4FF4B47CE1
:1000F000434B00264FEA401E0CFB004C9CF83A553F
:100100008CF83A6582F83A541D785A7895420DD0A9
:1001100002EB420C560003EBCC0C9CF804C00CF133
:10012000FF37012F5DD9BCF1030F55D004EB0E0052
:10013000A0F83814EFF31183902282F3128890F81C
:100140003A24DBB2B0F8381442EA4102002192B2FC
:1001500080F83A1483F311881309247883EA122370
:1001600083EA0201DCB11301C943D0F85024012411
:10017000D0F83C049BB201F00F01D2F8AC208440CF
:100180000B4302F1C000590013F4004F8BB202D1AF
:100190005168214351600C328242F4D1F0BD130109
:1001A000D0F83C44D0F8502401F00F0104F11000C5
:1001B0009BB20124D2F8AC200B43844002F1C00072
:1001C000590013F4004F8BB202D1516821435160A2
:1001D0000C329042F4D1F0BD571C07F00307AF4238
:1001E000A4D0324403EBC2030344597C00299DD0C0
:1001F00004EB0E03012283F83A2497E70400002061
:10020000681F0024704700BF024B03EB401090F8BA
:100210005504704704000020704700BF0A4810F8DA
:100220004C1C81B101EB410100234438490010B45A
:100230001C4650F82320063302B114608B42F8D1DB
:100240005DF8044B70477047FC1000200A4810F816
:100250004C1C81B101EB410100234438490010B42A
:100260001C4650F82320063302B114609942F8D19D
:100270005DF8044B70477047FC1000200120704768
:10028000034B00EB400003EBC00010F8330C704749
:10029000FC1000202DE9F0431D4C14F84C3CABB38E
:1002A0000022A4F144034FF0500E1A4E4FF02C0CD4
:1002B000194F154607E053F8181B01320D6014F86A
:1002C0004C1C914222DD197C0029F4D05968FE2093
:1002D0004FEA9128A8F58018B8F1520F98BF17F887
:1002E0000800EFF311888EF31288D1F824900CFBEC
:1002F00000605FFA88F809F10109C0F88C9048693C
:1003000040F00100486188F31188D4E7BDE8F0832C
:10031000FC100020681F0024505F0B0807EE900AB5
:10032000B8EE670A704700BFBCEEC00A10EE103A84
:1003300098B270474FF40063838170472DE9F8430A
:1003400017F0B4FD224F4FF0000C05464FF48678AD
:10035000204E7968002930DD00231C4608FB03721B
:10036000013392F805218B4244EA0204F6D144EAB3
:100370000C0C5FFA8CF97368C3F30803D3B9EFF37D
:100380001183BBB91BF0B2FE431BB3F5FA6FCCBFB0
:100390004FF0000C04F0010CBCF1000FD9D1B9F101
:1003A000000F04D00C4B93F8F822542A08D048468A
:1003B000BDE8F88317F04EFDE6E7E1460024DAE7F2
:1003C000B3F8002348460132A3F80023BDE8F883C0
:1003D0000400002000ED00E0681F0024084A0346E6
:1003E000D0F8E4005268D3F8F010121A00209142BD
:1003F000B8BFC3F8F020012283F81C21704700BF6A
:10040000001000E04FF400638381704701207047C3
:100410000120704701207047036810B41A78012A40
:100420001CD0184C184B012019688A7891F801C02B
:100430004B7912041B0442EA0C2291F804C043EAEF
:100440000C2391F800C0C97842EA0C020B43C4F8AF
:100450009C24C4F8A0345DF8044B7047642293F9DF
:100460000430084C02FB034393F86523202A03D091
:1004700000205DF8044B7047D3F824339B691B04BC
:10048000F6D4CFE7681F0024000000242DE9F04FC8
:10049000CD4C83B0B4F8A434D4F8A024B4F8A66446
:1004A000A2EB032294F9A8540091A6FB02634FEA41
:1004B000E57C9F04A2FB022305FB03F347EA963782
:1004C000B60402FB0C33A5FB0252AD191A4442EBF1
:1004D0000703002B02DA013D43F10003DF17BB4A9B
:1004E000C4F8C0345760002800F01A8103FB07FCF1
:1004F000D4F89C54A3FB032606EB4C064FEA921E4D
:100500004FEAA6184EEA866E0EFB07FC03FB08CCEA
:10051000AEFB03E81CEB080C00F150814FEA1E2EE5
:100520004FEA2C214EEA0C6E94F9AEC401914FEAC9
:10053000EC780CFB01FA0EFB08AAACFB0EC81AEB18
:10054000080A00F136814FEA5C1CB4F9AB844CEA2E
:10055000CA6194F9ADC4A8F580484FEAEC7B0CFB66
:1005600006F902FB0B99ACFB02CBD944B4F9A9B450
:100570004FEA8909ABF5804B49EA9C794FEA8B3BFE
:100580004FEA8C0C0BEB6A1A08FB07FB11EB0C0C07
:100590004AEB09094FEAE87A03FB0ABBA8FB038A86
:1005A000DA444FEA4A5A4AEAD82A4FEA48581CEB3A
:1005B000080C49EB0A09B9F1000FC0F2F3804FEAC9
:1005C0001C6B019994F9B4C44BEA092B0CFB01FA9A
:1005D0004FEAEC784FEA29690EFB08AAACFB0ECE75
:1005E0001AEB0E0E00F1D9804FEA5C1C4CEACE6883
:1005F00094F9B3C44FEAEC7A0CFB06F602FB0A66E8
:10060000ACFB022CB444B4F8AF644FEA0C1AF60306
:100610004AEA127A120106EB6E1E18EB0202B4F8D7
:10062000B184A8FB03C64EEB0A0A08FB07684FEA31
:10063000885646EA9C264FEA8C5C12EB0C024AEB89
:10064000060ABAF1000FC0F2A28094F9B7E44FEAAB
:10065000920CABFB05864CEA8A7C0EFB07F205FB8D
:1006600009664FEAEE791CEB0808B4F9B5C403FB40
:100670000922AEFB03E946EBAA064A444FEA0C49BD
:100680001EEB090E42EBEC7CAEFB05E205FB0C22F7
:10069000002A75DB4FEA5E3E4EEAC24E5213AEFBB5
:1006A00005CE05FB02EEBEF1000F62DB4FEA5C2CCB
:1006B00094F9B8244CEACE5C18EB0C0CA5FB054869
:1006C00046EB6E264FEAE27E04FB0EFE02FB08EECE
:1006D000A4FB02421EEB020E45D4220C42EA0E425B
:1006E0004FEA2E4EA2FB052405FB0E4EBEF1000F75
:1006F00035DBD20942EA4E6212EB0C0246EBEE16F3
:10070000941846EB060EA41846EB0E0E4FEACE0EDA
:100710004EEA547EE400A41846EB0E06360C066042
:10072000009A9AB1DA1847EB0700D21847EB00009D
:10073000C00040EA5270D200D31847EB0007002FE8
:1007400007DB9B0B009A43EA8743136003B0BDE8C5
:10075000F08F43F6FF729B1847F10007F1E77F32F5
:100760004EF1000EC5E74FF6FF72A4184EF1000ED1
:10077000B3E740F2FF121CEB020C4EF1000E95E7BE
:1007800041F6FF7C1EEB0C0E42F1000282E712F1F3
:10079000030C62464AF1000A57E71CF11F0C4EF1A8
:1007A000000E21E76FF07F4B1CEB0B0C49F10009A9
:1007B00005E71CF11F0C4AF1000AC4E61EF1FF0E0A
:1007C0004CF1000CAAE600BF681F00242824002476
:1007D0000020024B83F8C804704700BF681F002444
:1007E00038B5152400224E21054612F05DFF9620F3
:1007F0001BF072FDF521284613F050F8422807D06F
:10080000472807D0013C14F0FF04F0D1204638BD42
:100810000C24FBE70D24F9E738B590F8283004469E
:10082000012B04D0407F40B10023637738BD406A7C
:1008300003681A7B8AB9637F0BB9012038BD094D63
:1008400002232A4605F1200112F09EFE6B7803F088
:10085000010383F001006377E8E71B6A002BEAD00D
:10086000002038BDE0180124F8B5144E044690F875
:10087000282006F12007437F012A04D00BB1002372
:1008800063770120F8BD606A0268157B7DB9002B93
:10089000F7D00223094A394612F076FE737803F046
:1008A00001036377002BECD094F82820E4E7126A68
:1008B000002AE9D1002BE4D0EBE700BFE0180124C7
:1008C000F0B511F0010583B00AD190F82860044614
:1008D000012E07D0C368B3F1807F01D901232377AC
:1008E00003B0F0BD0A4B476AD3F8CC0413F084F888
:1008F000E368B880B3F1807FF2D9B7212A46384641
:1009000033468DF8041001A9267712F03DFEE7E783
:10091000681F00240346012200205A77704700BF59
:1009200008B5D0E90B2183690B4483610AB10846FD
:100930009047002008BD00BF436A02461B681B6A3F
:100940005B685B7813F0010008BF5077704700BF09
:1009500070B5002394B00546224C069302200B93F9
:1009600004F1200210931393119301921E4E6A6AB0
:1009700004960E4600940290CDE90E3301238DF8C3
:100980000C3007938DF820308DF834308DF84830D6
:100990002B7F002B14BF052304230C9304F1400389
:1009A0000593124B0993A4F120030A93106871F088
:1009B000A5FE2B7FA3B1A4F16002330E1E3C82F88A
:1009C0004130320C6946330AA67022706370686A3F
:1009D00012F036FC6B6A186871F090FE14B070BDAE
:1009E0001F3CEEE7401901243909040815090408E1
:1009F00010B594B0044650220649684675F0B0F828
:100A00006946606A12F01CFC636A186871F076FE31
:100A100014B010BDA45F0B08C2628161704700BFB3
:100A20002DE9F8431F46436A0446884618689146F4
:100A300071F064FE237F002B3BD0A0690523264D77
:100A4000264E6B63030EC23606F8013CB070030CF1
:100A5000000A012F337070704FF00000D8F800309A
:100A60002B64D9F80030AB642363A86527D0022F2C
:100A70001DD1D9F8042028651344D8F8041085F84E
:100A80004C00EA65012269652363154B85F86020F7
:100A90006B66144B617F03F11402606A002914BF76
:100AA0001946114612F0CCFBE36A7BB1206BBDE81E
:100AB000F883094D0423A0690B4E6B63C6E7084B0E
:100AC00085F84C706865E8652B65E2E7636A18682D
:100AD00071F014FEEAE700BF00000024E0180124D2
:100AE0002109040804000024A1190124704700BF53
:100AF00000B583B08161019201A9049A009301239A
:100B0000C2626A46FFF78CFF03B05DF804FB00BFCA
:100B10002DE9F0439846436A95B0054618680E469D
:100B2000334C914671F0EAFD0223324A00270293CA
:100B300004F58073049204F1E002009304F59073CD
:100B4000297F0193012305928DF80C300697002927
:100B500036D08DF83430E2348DF84830330ECDF88D
:100B60002C9004F8013C05238DF82070CDF83080DE
:100B700013970793CDE90977CDE90E77CDE9107783
:100B8000330CA6701C4F360A23706670D7F8CC045D
:100B900012F032FF6C6A6B7FA08033BB05A9204640
:100BA00012F04EFB6B6A186871F0A8FDD7F8D004FC
:100BB00012F022FF6B6A9880404615B0BDE8F083C2
:100BC0008DF83430E1348DF848300423CDF82C9082
:100BD0008DF82010CDF8308013910793CDE90911DD
:100BE000CDE90E11CDE91011CAE76946D7E700BF7C
:100BF000E018012439090408681F002404307047F4
:100C0000C2628161704700BF436A02461B681B6A6B
:100C10005B689B7813F0010008BF5077704700BFF6
:100C20000346012200205A77704700BF08B5D0E97B
:100C30000B2183690B4483610AB108469047002069
:100C400008BD00BF704700BF2DE9F04FBF4D87B012
:100C50002B781BB9012007B0BDE8F08F6B68BC4A48
:100C6000002BD2F8D47418DD05F108040020B9492E
:100C7000D4F8F430BFF34F8F03F59072C1F85C32B3
:100C800020339342FAD1BFF34F8FBFF36F8F013000
:100C90006B6804F586749842EADBAF4BAF4EA3FB5A
:100CA0000723AF4FDFF8D0A25B09A7F17C0BA6FBAF
:100CB0000326F60806EB8606A3EB4606F3B207EB1F
:100CC0008606059307F53873029300239946DBF8EF
:100CD00064344B4540F31381DAF81830DAF80480B5
:100CE000D3E93D5417F0E2F80122049002FA08F328
:100CF0009C4901936118964B05EB410193F8D80488
:100D000093F8F8321A46039305EB4003542A00F097
:100D10004581019A994240F24881B3F800C01CEA2B
:100D2000020F00F05181B3F802C01CEA020F00F07C
:100D30004E81B3F804C01CEA020F00F04B81B3F8F7
:100D400006C008331CEA020FE4D10192A3EB050EA2
:100D500099424FEA6E0E40F22881A4EB0E04452C16
:100D600028BF452403EB4404A34280F023810025DF
:100D70009C46019AA8462946019618881040884248
:100D800014D158881040814240F0DB809888104090
:100D9000814240F0D880D88808331040814206D183
:100DA0009C4207D9188810408842EAD002339C42FE
:100DB00000F2AC80B8F1110F019E40F2FB80D8F137
:100DC000150200F1F7806849049CCB6F9E45604B8B
:100DD000D3F8DC0438BFC1F87CE0231A002B13DB06
:100DE000624B03449C4200F2FA805948C0F8DC345C
:100DF000CB6F052B40F2F180053BDBB2544880F805
:100E0000D8344FF0FF33CB6742B105FA02F2C8F194
:100E10001408012505FA08F848EA0205544BC5F301
:100E2000C43203EB8202D2F8A40005F01F0203EBE8
:100E30008202D2F8A410C5F34412C5F3842503EB53
:100E4000820203EB850541EA0031D2F8A43041EA81
:100E50000311D5F8A43041EA032181EA112383EA82
:100E6000131303F00F030F2B40F08880B1F5803F80
:100E700080F08480039B0909542B05D1344AB2F8D1
:100E8000FC320133A2F8FC32DBF86433B1F5606F59
:100E900003F10103CBF8643300F0B380029B998126
:100EA00097F85830059883420CD0B2683B689B1A7B
:100EB0003B607B68326B9B1A7B600023B3603363BB
:100EC00087F858003B6801333B60B3680133B36077
:100ED0004FF6FF73994205D17B6801337B60336B1A
:100EE00001333363029B09F101095C375C3614332B
:100EF000B9F1080F0AF1200A02937FF4E8AE01234A
:100F000001208BF8603407B0BDE8F08FA3EB0C0C28
:100F1000184833F8021C4FEA6C0C11400CF1010C1C
:100F200080FB0C60A0EBEC704FF0010C0128B8BF07
:100F300001208540804401380CFA00F09C460543AE
:100F40001BE7043333E7063331E700BF040000201A
:100F5000681F002400ED00E01F85EB51CDCCCCCC08
:100F600078110020C7FFFF7F0000002420A10700A8
:100F7000505F0B08565555553C040020039B542BDD
:100F800033D0DBF864330133CBF86433DBF8603300
:100F90004FF6FF710133CBF8603381E7204A994265
:100FA000A2F80203019A3FF6B8AE18B101381C4B03
:100FB00083F8D804039B542B94D1194AB2F8FE321B
:100FC0000133A2F8FE328DE702330192BEE604330C
:100FD0000192BBE606330192B8E600230EE70498BF
:100FE0000F4B0530C3F8DC0402E70D4AB2F8FC32BF
:100FF0000133A2F8FC32DBF864330133CBF86433FD
:10100000C4E7074A537803EB430302EBC3034B44A3
:101010005B7C0D2B7FF442AF8023029A93773FE7EE
:10102000681F002410B5044674F01CF801462046E1
:1010300089B2BDE81040FFF751B800BF00EB400097
:1010400010B5084C04EBC00414ED0F7A54ED0E7A81
:10105000E7EE007AB0EE670A74F004F854F8443C06
:10106000186010BDFC100020F8B5264B1A785B788C
:101070009A4242D1244E7368002B23DD002506F1ED
:101080000800224C2F46D0F8AC30BFF34F8F03F14D
:10109000E002C4F8683220339342FAD1BFF34F8F95
:1010A000BFF36F8F337813B1037F012B20D04269D8
:1010B0000135716800F586701368A94243F0010399
:1010C0001360E0DC16F0F2FE114BD3F86844002CFC
:1010D0000DDD03F26C4303EBC4041968083333F8E5
:1010E000042CC8689C4242EA0002CA60F5D1F8BDEF
:1010F00080F8FC70FEF784FFD9E76CF0C1F8002897
:10110000B8D1F8BD681F00240400002000ED00E005
:10111000FC1000204FF0B042F8B5D2F88030D2F881
:1011200088502B4003EA0005C2F888507DB1084F73
:101130000126B5FA85F4C4F11F0407EB840306FA0F
:1011400004F4D3F8E00403689847A543F1D1F8BD4F
:10115000681F00240269C3682DE9F04712EA0309F9
:101160002AD005460E464FF000474FF00008B9FA66
:1011700089F327FA03F21B3BD24309EA02092A61E9
:10118000042B16D8DFE803F03B30251A0300B36ABE
:10119000002B3FD003F1FF3AC6F828801FFA8AFAE5
:1011A000746A34B123682046514698476468002C1D
:1011B000F8D1B9F1000FDAD1BDE8F08770680028E6
:1011C000F7D0696B036889B29847B9F1000FCED1A7
:1011D000F2E7B0680028ECD0A96B036889B29847A1
:1011E000B9F1000FC3D1E7E7F0680028E1D0E96B5F
:1011F000036889B29847B9F1000FB8D1DCE73069CC
:101200000028D6D0296C036889B29847B9F1000F3D
:10121000ADD1D1E7E96A1FFA81FAC1E78069B4303C
:1012200058F0D2BC2DE9F743054600F11004794887
:1012300012F0E2FBA882284659F094FF42F21F53B5
:1012400000227621A5F84C31204612F02DFA00221A
:101250004E21204612F028FA95F8D8906E4BB9F13D
:101260000C0F93F8C13540F0AD80012B00F0BA802F
:10127000022B15BF062603264FF4DC774FF4786760
:1012800014BF4FF015084FF03F0801227621204689
:1012900012F00AFA42460C21204612F005FA07F035
:1012A000FC020D21204612F0FFF90E2132012046EA
:1012B00042EA172212F0F8F9B9F10C0F4FF00202CE
:1012C0004FF0760115BF4FF006084FF015082427A0
:1012D0004FF4DC77204614BF0A26062612F0E4F904
:1012E0004FEA48020321204612F0DEF907F0BC0263
:1012F0000421204612F0D8F905213201204642EAA5
:10130000172212F0D1F900227621204612F0CCF9F2
:10131000FF225221204612F0C7F903221421204651
:1013200012F0C2F900226321204612F0BDF9082212
:101330006521204612F0B8F9E421204612F0AEFAF9
:1013400000F0EF00642140F06002204612F0ACF99A
:10135000CD21204612F0A2FA00F03F004D2140F0CE
:101360004002204612F0A0F90F224E21204612F032
:101370009BF901201AF0B0FF95F8DB30002B43D029
:1013800095F82031013343F00103B3FA83F3C3F13D
:101390001F03032B38DC214AD25C02F00F024F21DD
:1013A0002046019212F080F90F201AF095FF204696
:1013B000019A502112F078F90F2003B0BDE8F043F4
:1013C0001AF08ABF022B13D0032B17D0012B15BFA5
:1013D0000A2608262427902714BF4FF006084FF04E
:1013E0000C0852E704264FF4C0674FF027084CE77B
:1013F00006264FF4DC774FF0150846E704264FF435
:10140000AC674FF0250840E70023062285F8DB3063
:10141000C3E700BF00366E01681F002494FB0B0871
:1014200000B5002383B098388DF8033003681B782B
:10143000022B08D001230DF10302112111F0ECFD64
:1014400003B05DF804FB01AA112111F0E5FD03B022
:101450005DF804FB13221B2112F09AB903681A7875
:10146000012A08D00D4B04210D4A1B689B1A063334
:10147000DBB211F015BF93F904206421094B01FB85
:10148000023393F86523202A01D000207047D3F857
:1014900024339B691B04F8D4E4E700BF0000002458
:1014A000A01F0124681F002410B590F828300446BE
:1014B000012B03D000230120637710BD406A03682D
:1014C0001A7B3AB96EF03CFB00F0010383F0010097
:1014D0006377F2E71B6A002BF4D0002010BD00BF39
:1014E00038B5114D044694F82830012B05D000235F
:1014F000637700230120236238BD606A03681A7B8A
:1015000072B96EF01DFB00F0010060770028F0D08A
:10151000D5F8D434226A9B1A002BE4DB002038BDB6
:101520001B6A002BEDD0F3E7681F002410B5FF22E3
:10153000044690F82810406A71F000FD0E4B2046DA
:10154000D3F8D43403F5FA732362FFF7C9FF94F894
:101550002830012B00D010BD0022A021606A71F05C
:10156000C7FC94F82830012BF5D1606A1822B0210D
:10157000BDE8104071F0BCBC681F0024CB0700D54B
:10158000704710B50446FFF7D1FF94F82830012BBF
:1015900000D010BD024812F02FFA636A988010BD87
:1015A00000E1F50538B504460D46FFF799FF062220
:1015B00094F82810606A71F0C1FC012294F8283078
:1015C0006277934205D0064BD3F8D4340F332362AD
:1015D00038BDEA0AD821606A71F066FCF3E700BF03
:1015E000681F00248388002B48D02DE9F04F8DB070
:1015F00004460026DFF8888006274FF001090DF128
:10160000070509E084F81D90D8F8D4340136A28883
:101610000F33B24223622ED92046FFF761FF94F8C0
:1016200028A0D4F824B0BAF1010F8DF80770E9D1E1
:10163000002302A9584602950B938DF814A08DF84B
:1016400028A0CDE9033ACDE90633CDE9083311F0FE
:10165000F7FDDBF8000071F051F894F828307204BF
:10166000D821012B84F81DA04FEAD222CCD1606A88
:1016700071F01AFCC8E70DB0BDE8F08F704700BFED
:10168000681F002470B5104D95F8E43503B970BD9E
:10169000D5F8E86504460D4BF60AC3F88060FFF7FD
:1016A0001FFF94F82830012B07D0D5F8D43400223E
:1016B000023385F8E425236270BD32461021606A4A
:1016C00071F0F2FBF1E700BF681F00240000002466
:1016D0002DE9F047414F1E4690B00C46D7F88030B8
:1016E00005469046B3EBD12F21D1DFF8F490C4F337
:1016F0000A0495F82830C4F50060B04234BF87B2C0
:10170000B7B2012B3CD0D9F8D434284602332B622F
:10171000FFF7E6FE38B195F82830012B23D0384684
:1017200010B0BDE8F087002010B0BDE8F0874FEAA8
:10173000D12AFFF7D5FE0028F5D04FF0FF33C7F8C8
:10174000803095F82830012B42D0DFF8949028465D
:10175000D9F8D43402332B62FFF7C2FE0028E2D05E
:10176000C7F880A0C3E7686A6EF0EAF9C0F3011019
:1017700001380228D3D82846FFF7D8FE3846CFE7ED
:101780008DF80240240A8DF8243000228DF838307C
:1017900003238DF8014001A96C6A8DF80030042301
:1017A00020468DF8032002928DF810200F92CDF87C
:1017B00004D00393CDE90786CDE90522CDE90A22BD
:1017C000CDE90C2211F03CFD206870F097FF9AE7FC
:1017D00052461321686A71F067FBB6E700000024E7
:1017E000681F002433B910B51C46C36A20469847C9
:1017F000204610BD08F0C0B810B582B00C4601926A
:1018000001A9049A8461C2626A46009308F0B4F8A0
:1018100002B010BD10B4294C94F88C346BB3D4F8DA
:101820009424904235D0012B27D0D4F870258242E1
:1018300037D0022B21D0D4F84C26904233D0032B42
:101840001BD0D4F8282790422FD0042B15D0D4F8E1
:10185000042890422BD0052B0FD0D4F8E0289042DA
:1018600027D0062B09D0D4F8BC29904223D0072BCF
:1018700003D0D4F8982A824211D0DC22591C02FBF2
:10188000034284F88C14C2F8940418465DF8044BA3
:1018900070470023DBB25DF8044B184670470723FE
:1018A000F8E70123F6E70223F4E70323F2E7042332
:1018B000F0E70523EEE70623ECE700BFFC1000206D
:1018C00000207047704700BF244BD3F888239169EC
:1018D000106810B4CC0538D5040626D5D3F8CC034F
:1018E0004FF4807440F00100C3F8CC034805D46184
:1018F00030D5D3F8CC034FF48064890540F008005C
:10190000C3F8CC03D46108D5D3F8CC134FF40070DE
:1019100041F00201C3F8CC13D061D3F8CC1311F01D
:101920000B0F0DD15DF8044B70474C05F5D48C05B9
:10193000F3D50006E8D4D3F8CC1311F00B0FF1D097
:1019400007485DF8044B59F0F7BD4C05EFD500068C
:10195000CFD4E2E78905D7D4DFE700BF681F0024B2
:10196000F0220024084810B4D0F88833D0F8BC43E3
:1019700099691A682CB1234600F562705DF8044B32
:1019800018475DF8044B7047681F0024032870B5A2
:10199000D4BF0024012482B0B0F1FF3F08BF44F05F
:1019A00001048DF80730ECB96423154D03FB00F0FA
:1019B0002B18D3F8246396B193F865C3BCF1200FBC
:1019C00014D193F86433012B10D0284449000DF151
:1019D000070300F549706BF01DFE38B9012420465D
:1019E00002B070BD0024204602B070BDB5F8EC35E1
:1019F000204601339BB2A5F8EC3502B070BD00BFA4
:101A0000681F00242DE9F04705466420C14C82B0D0
:101A100005FB00F02618D6F82403002800F0B1805A
:101A2000FF2A06F5497700F0E98096F865C3BCF116
:101A3000200F40F0D9801FFA83FC0A9B002B00F096
:101A40005681BCF1000F00F0528196F86433012BEF
:101A500000F0CA80012386F86433D4F8F06505E00D
:101A6000D4F8F0359B1B192B00F23081836913F4F5
:101A70000048F5D14FF0640A0A9B00964FEA4109ED
:101A80000AFB054A38464946CAF848332223CAF8B1
:101A900058838AF8653340238AF866330A23CAF8E4
:101AA0006883AAF84EC36BF027FD002840F03C8203
:101AB000BAF84E339BB2FF2B00F23A81BAF84E339C
:101AC000DAF824139BB294484A68AAF84C33DBB284
:101AD000024049EA03431343904A1A434A604FF0D5
:101AE00064088F4AFF20DFF844A208FB0548D8F8B5
:101AF00024E305E0D4F8F0359B1B0A2B00F2728139
:101B0000DEF8183013F0040CF4D0DEF82430D8F8E6
:101B100048130B70B8F84E33B8F84CC3013B0CF1C6
:101B2000FF3C9BB21FFA8CFCA8F84E33D8F8483320
:101B3000A8F84CC30133C8F84833B8F84E339BB209
:101B4000BCF1000F02D1002B40F08481B8F84E3375
:101B50009BB2002BCBD1314638466BF00BFD0346D0
:101B6000002841D1D8F8242320246E48D46151683C
:101B700001400120516088F8654388F8643388F893
:101B8000663302B0BDE8F087D4F8F025A2EB0C0272
:101B90000A2A00F2DB808B6913F02003F4D02023A3
:101BA0001022CA61CB618B69980701D500238B6233
:101BB0008B69DA0703D48B6943F001038B614A68B0
:101BC0006423584E002003FB0545324020264A601E
:101BD000D5F8683385F8640343F00403C5F8683327
:101BE00085F8656385F86603B4F8EC3500200133A9
:101BF0009BB2A4F8EC3502B0BDE8F08796F86523F7
:101C0000202AF1D196F86423012AEDD00122D4F8DC
:101C1000F0C586F8642305E0D4F8F025A2EB0C02A9
:101C2000192A53D8866916F40046F5D14A00642172
:101C30004FF0220E1FFA83F801FB05410A9B81F841
:101C400065E34FF0100EC1F8483381F866E3C1F840
:101C50006863A1F84E83B1F84E33C1F858639BB264
:101C6000FF2B4CD8B1F84E332B4E9BB2A1F84C331E
:101C7000DBB2416842EA034331400B432749194331
:101C80004160642626484FF0FF08DFF8A0E006FB1D
:101C90000546B6F84E339BB2002B00F02D81D6F8E6
:101CA00024130BE08B6913F0200940F0AB80D4F8CB
:101CB000F035A3EB0C030A2B00F2BE808B695B07A7
:101CC00054D48B69DB063FF566AFEBE76423202134
:101CD000002203FB0545D5F8683385F864230B43E0
:101CE000C5F8683385F8651385F866237CE76423B7
:101CF0004FF4007203FB0545C5F8682374E7436899
:101D0000054E3340084E13431E43FF23A1F84C33C6
:101D10004660B6E7681F0024009800FC002400829B
:101D2000009C00FC00E800FE0024FF810000FF0191
:101D3000DAF82413FF237E48AAF84C334B687D4A17
:101D4000034043EA09031A434A60C8E6642220219B
:101D500002FB0545D5F8682385F864330A43C5F8C6
:101D6000682385F8651385F866333DE7496AD6F838
:101D700048331970B6F84E33B6F84C13013B0139AD
:101D80009BB289B2A6F84E33D6F84833A6F84C1366
:101D90000133C6F84833B6F84E339BB2002B3FF4FC
:101DA00078AF00297FF475AFD6F8249305E0D4F816
:101DB000F035A3EB0C030A2B7BD8D9F8181011F0DF
:101DC0008001F4D0B6F84E339BB2FF2B60D9D9F81E
:101DD0000430A6F84C830340134343EA0E03C9F8CA
:101DE000043056E76423202203FB0545D5F8683309
:101DF00085F864C31343C5F8683385F8652385F80F
:101E000066C3F1E68B695B0703D5B6F84C33002B4C
:101E1000ACD12020484AC8614B68134000224B6077
:101E2000642303FB0545C5F8682385F8642385F81A
:101E3000650385F86623D7E66423202203FB054566
:101E4000D5F8683385F864931343C5F8683385F88B
:101E50006523C9E6D8F824E304E0D4F8F0359B1BE9
:101E60000A2BBFD8DEF8183013F0800CF5D0B8F884
:101E70004E339BB2FF2B2CD9DEF80430A8F84C036C
:101E8000134043EA090343EA0A03CEF804305DE64F
:101E9000B6F84E33D9F804109BB20140A6F84C3383
:101EA000DBB242EA03430B4343F00073C9F804304A
:101EB000EFE66423202203FB0545D5F8683385F857
:101EC00064131343C5F8683385F8652385F86613F2
:101ED0008AE6B8F84E33DEF804C09BB20CEA020C76
:101EE000A8F84C33DBB249EA034343EA0C0343F05E
:101EF0000073CEF8043029E6614638466BF03AFBB1
:101F0000034600287FF470AED6F8242320240A4824
:101F1000D461516801400120516086F8654386F81C
:101F2000643386F866332CE68AF864835CE600BF87
:101F3000009800FC0024FF8100E800FE114A037AAB
:101F40000168D35C10B4CC58CA1824F00104CC50FA
:101F50001368DB07FCD4037D1F2B09D9203B20220B
:101F60005DF8044B02FA03F343F01803CB607047AB
:101F700020225DF8044B02FA03F343F018038B6050
:101F8000704700BFC8FB0B08F8B507680646D7E9DD
:101F90000454A0612B7D1F2B49D9203B20222868A7
:101FA00002FA03F343F01803C360237D1F2B48D9C3
:101FB0002022203B02FA03F3226843F01803D36087
:101FC0006368002269680A601A601A6842F01002A9
:101FD0001A60BA69297A6FF06FF8FA69217A206875
:101FE0006FF06AF833682E681A6A5B6891685868FF
:101FF000184A024020680A4317495A602A7A8D5CC1
:10200000725942F001027251227A895C425842F0C0
:10201000010242509A6842F440429A601A6842F0C3
:1020200001021A601A6842F400721A60F8BD202298
:10203000286802FA03F343F018038360237D1F2B03
:10204000B6D8202202FA03F3226843F01803936003
:10205000B6E700BF0000FFFFC8FB0B0810B1036824
:1020600082889A61704700BF18B1838802681B0498
:102070009361704708B51D2012F066F808B18379A6
:102080004BB11E2012F060F808B1837903B108BD8E
:102090005523C38008BD5523C380F2E7D3B20F2B6D
:1020A0002AD84FF0000C10B46346144C04E00133FE
:1020B000282B1DD014F803CF6045F8D194F801C047
:1020C0008C45F4D10E4C03EB43030E4902EB420C5A
:1020D00023445DF8044B01EB8C0201F1840093F87A
:1020E000263100EB8C00C2F88C3082F884307047C7
:1020F00000205DF8044B70470020704774600B08A7
:10210000505F0B080000002410B40C4C002304F2B4
:10211000F45C01E0152B0CD003EB430201331CF8F7
:1021200002108142F6D122445DF8044B92F9F60583
:1021300070474FF0FF305DF8044B7047681F002474
:1021400030B40023114C124D04E001331A2B1AD085
:1021500054F8085FA842F8D125798D42F5D10D4C8D
:1021600002EB42050C4904EBC30301EB850201F1CC
:10217000840093F8A13100EB8500C2F88C3082F81E
:10218000843030BC7047002030BC7047EC600B08D6
:1021900000000140505F0B0800000024F0B1002354
:1021A00010B504460E4894F804E000F2F45C01E037
:1021B000152B11D003EB430201331CF802107145BB
:1021C000F6D102446179206892F9F625D3B20F2B3B
:1021D00002D8BDE81040B3E7002010BD00207047D2
:1021E000681F00240138074B074A00EBC00003EBCF
:1021F0008000D0F8440190420CBFA020A1206BF0D9
:102200000DBB00BF000000240000024001382DE992
:10221000E84100EBC000134D1E46134B05EB800553
:1022200090460F46D5F8440198420CBFA020A1204B
:102230006BF0F4FAB5F95A014FEA9811C5F85471E8
:10224000C5F85C616BF0BAFAB5F95A31002B07DBBF
:1022500003F01F0001225B090449824041F823205A
:10226000BDE8E881000000240000024000E100E039
:10227000800AA0F58010522806D8044B1B5C0D2B59
:1022800002D8034AD056704700207047505F0B08B1
:10229000B8FB0B082DE9F04387B09DF83890002873
:1022A0003CD0B0F804801446B8FA88FCBCF1200F8A
:1022B000CCF11F0232D0244F4FF0004E234DBE18F8
:1022C00005EB820296F86C62C2F8E0143EFA0CF25A
:1022D00009D04FF0B041D1F880C02CEA020CC1F80F
:1022E00080C0C1F8882007EB890703F0030235445A
:1022F0000068D7F87C12CDF804800A4301A9029245
:10230000C3F34112C3F381030392049300230593A3
:1023100058F0E2FD95F83436A34202DC07B0BDE880
:10232000F0830B4BA11185F834469C5D20466BF081
:1023300045FA04F01F0101236409064A8B4042F864
:10234000243007B0BDE8F083505F0B08681F0024FD
:10235000B0FB0B0800E100E070B183884FF0004251
:10236000B3FA83F332FA03F306D04FF0B041D1F859
:1023700080201343C1F88030704700BF0120FEF772
:10238000C9BE00BF0220FEF7C5BE00BF0420FEF795
:10239000C1BE00BF0820FEF7BDBE00BF1020FEF783
:1023A000B9BE00BF4FF47870FEF7B4BE4FF47C4066
:1023B000FEF7B0BE30B1036882881B691A4214BFB1
:1023C00001200020704700BF70B50C4686B005465E
:1023D000164640B101680E4B0E4A0B449B0A02EBB5
:1023E0004303B3F888026BF019FA04F01303AA88C8
:1023F00001A90293C4F341132868C4F38104019234
:102400000596CDE9033458F067FD06B070BD00BFF6
:102410000000FEA7505F0B0800B1D5E7704700BF72
:102420002DE9F843B14C04EB0017D7F83C36002BEC
:1024300000F0BF8005460601B7F846066BF0EEF9DE
:10244000B7F84636012103F01F025B09023B01FA8F
:1024500002F2082B0FD8DFE813F008011001180171
:10246000200128010900300138014001A04BD96F3B
:1024700021EA0202DA67A319013593F84006EDB2AA
:1024800011F062FE074610B11223C5718371A319C2
:1024900093F8410611F058FE814610B11323C5711F
:1024A0008371A31993F8420611F04EFE804610B1D5
:1024B0001423C5718371344448462E2194F8442670
:1024C000FFF7AAFF94F845260E214046FFF7A4FF28
:1024D00094F843262E213846FFF79EFFD4F83C3669
:1024E00084491A688B4222F001021A6063D0824A42
:1024F000934200F08F8002F58062934279D17C4A4A
:10250000D2F8901041F40041C2F89010D2F8901027
:1025100021F40041C2F89010DA6842F00042DA601B
:102520009A6822F4F0729A601A68D60741D4734907
:102530009D68D1F89C23D1F8A44344EA0200D1F865
:102540008C2310436E4A2A401043D1F89823986098
:10255000DD68D1F88803ED007BD50243D1F8900304
:10256000DE68B4F5800F42EA0002D1F89403654DAD
:1025700042EA0002D1F8A00305EA060542EA000299
:10258000D1F8840300F4C02600F4006042EA060299
:1025900042EA0502DA601A6822F4006242EA0002A6
:1025A0001A6002D1D1F8A8231A641A6D22F0010230
:1025B0001A65BDE8F8834E4AD2F8981041F480516C
:1025C000C2F89810D2F8981021F48051C2F89810EF
:1025D0004D4A9342A0D1464AD2F89C1041F02001C6
:1025E000C2F89C10D2F89C1021F02001C2F89C1077
:1025F00092E7464A93421BD13D4AD2F8981041F4E3
:102600000051C2F89810D2F8981021F40051C2F885
:10261000981081E7364AD2F8901041F48041C2F810
:102620009010D2F8901021F48041C2F89010CFE7BA
:10263000374A9342CCD12E4AD2F8981041F48011F7
:10264000C2F89810D2F8981021F48011C2F89810AE
:1026500062E7B2F1806F80D1B0F5800F7FF47DAF7B
:102660001D6845F480551D6077E7214BD3F898101D
:1026700021EA0202C3F89820FDE61D4BD3F8901022
:1026800021EA0202C3F89020F5E6194BD3F8941022
:1026900021EA0202C3F89420EDE6154BD3F880102E
:1026A00021EA0202C3F88020E5E6114BD3F884103A
:1026B00021EA0202C3F88420DDE60D4BD3F88C102A
:1026C00021EA0202C3F88C20D5E6094BD3F8881022
:1026D00021EA0202C3F88820CDE6054BD3F89C100E
:1026E00021EA0202C3F89C20C5E600BF681F00244F
:1026F000004402580030014000380040000000242F
:10270000E0FFBF8FFFFF39D80014005800340140AC
:102710000050014082682DE9F04F054693B01AB190
:10272000938812681B049361BE4B5B68C3F3080374
:10273000002B40F00481EFF31183002B40F0FF8069
:10274000B94B4FF0E024D3F8D424A069D3F8D414C3
:102750008A42F8D1D3F8A4168142F4D3D3F8A06604
:102760004FF47A7404FB06F1091AB1FBF6F104FB8D
:102770000211AC4E4FF0E0204FF47A744FF0100C81
:1027800001277268C2F30802002A40F09F80EFF32D
:102790001182002A40F09A80D3F8D484D0F818E04F
:1027A000D3F8D4249045F7D1D3F8A4269645F3D88E
:1027B000D3F8A09604FB09F2A2EB0E02B2FBF9F2E9
:1027C00004FB0822521AB2F57A7FDAD3AA6812B152
:1027D000116892888A610A24924810264FF0E021FD
:1027E0004FF47A7C4FF0010B4268C2F30802002AD2
:1027F00040F08E80EFF31182002A40F08980D3F8F8
:10280000D424D1F81880D3F8D474BA42F7D1D3F8CD
:10281000A476B845F3D8D3F8A0960CFB09FEAEEB2E
:10282000080EBEFBF9FE0CFB02EE4268C2F3080282
:1028300052BBEFF311823ABBD3F8D474D1F818909D
:10284000D3F8D4249742F7D1D3F8A4269145F3D8EE
:10285000D3F8A0A60CFB0AF2A2EB0902B2FBFAF233
:102860000CFB0722A2EB0E02B2F57A7FDDD3013C0E
:10287000BAD12B68ADF804401A6A002A00F08480AF
:10288000204613B0BDE8F08FEFF3118986F312886C
:10289000D1F818A00A69D20303D5C3F89CB6D1F8C1
:1028A00018A0D3F8D4245FFA89F9D3F89C7689F379
:1028B000118807EB0208D3F8A0760CFB07F2A2EB15
:1028C0000A02B2FBF7F20CFB0822CBE7EFF311820E
:1028D0008CF31288D0F81880D0F810E01EF4803FF6
:1028E00003D0C3F89C76D0F81880D3F8D494D2B231
:1028F000D3F89CE682F31188CE44D3F8A09604FB6B
:1029000009F2A2EB0802B2FBF9F204FB0E2259E72E
:10291000EFF3118E86F31288D1F818800A69D70375
:1029200003D5C3F89CB6D1F81880D3F8D4945FFAD5
:102930008EFED3F89C268EF311884A446BE7EFF3A2
:102940001181102383F312884FF0E02290691369FC
:1029500013F4803F344B03D00120C3F89C069069E8
:10296000D3F8D444C9B2D3F89C2681F31188111945
:10297000D3F8A0664FF47A7404FB06F2121AB2FB85
:10298000F6F204FB0121F4E68021012200200394E9
:102990008DF803100DF103010492029101A98DF845
:1029A00028208DF83C200222089100218DF8144047
:1029B000069407940B940E9410940992CDE90C019F
:1029C000EFF31182102181F312882968096A002926
:1029D0002CD0049902A8002931D00146CC691431C9
:1029E000002CFBD11B6A6BB19C683CB9994209D0A1
:1029F0001C682CB15B689C68002CF7D01433F3E79B
:102A0000C3E90050D2B282F311882B681A6A002AF7
:102A1000FCD19DF80530242B14BF00200F2013B0EB
:102A2000BDE8F08F00ED00E0681F002402A9D2B2DB
:102A3000196282F31188284673F082FAE5E70146AD
:102A4000D0E700BF38B50446254BD4F8E4105868E9
:102A500094F8D020D4F8D830012AC4F8D8000B4418
:102A6000C4F8DC3005D0D4F8D4300133C4F8D43005
:102A700038BD201D04F1E8056168EFF3118C1023C7
:102A800083F3128863681B6A0BB3D4F8F0302A46CC
:102A90001BB1D3691432002BFBD10B6A6BB199685F
:102AA00039B99A4209D0196829B15B689968002937
:102AB000F7D01433F3E7C3E900055FFA8CFC8CF31D
:102AC0001188D4F8D4300133C4F8D43038BD5FFA5B
:102AD0008CFC0D628CF3118873F032FAC3E700BFEF
:102AE000001000E02DE9F04186698AB0054696F8AD
:102AF000DC30012B49D0023B012B51D8D6F89C3059
:102B00008C222E4CEC461A70D0F818800FCCD8F8D6
:102B100010E008F11007ACE80F00D6F89C300093E5
:102B2000D6F8A03001930FCCACE80F0094E8030076
:102B30008CE80300EFF31180102383F31288D8F898
:102B400010301B6A002B2FD0029B6A461BB1D36941
:102B50001432002BFBD1DEF8203073B1996839B9FB
:102B600093420AD0196829B15B6899680029F7D0A7
:102B70001433F3E71F60C3F804D0C0B280F31188A8
:102B8000AB691A69136A002BFCD1D6F8A030B3F9EF
:102B90000220EA81B3F904202A82B3F906306B825D
:102BA00001200AB0BDE8F081C0B2CEF820D080F399
:102BB0001188384673F0C4F9E2E700BF0C620B08D5
:102BC0002DE9F04190F81E318AB00446032B6AD0FB
:102BD00090F8DC30D0F8A060012B00F0CC8017D842
:102BE000D0F89C30002205211A605A609A609A81C0
:102BF000D0F8E030C0F8F010B3F57A7F00F2EF8043
:102C00000323012580F8DC3028460AB0BDE8F081B6
:102C1000023B012B42D8D0F89C306D469222DFF85F
:102C20002CE2AC4600F110071A70D0F81080BEE814
:102C30000F00ACE80F00BEE80F00ACE80F00D4F8BE
:102C40009C309EE803008CE803000093D4F8A03089
:102C50000193EFF31180102383F3128823691B6A19
:102C6000002B00F0E380029B2A461BB1D36914328B
:102C7000002BFBD1D8F82030002B00F08F80996812
:102C800051B99A4200F08A801968002900F08480C6
:102C90005B6899680029F4D01433F0E701252846D1
:102CA0000AB0BDE8F0816649002301220A2501F13E
:102CB0002000009104F1100621698DF80C208DF898
:102CC00020200993CDE90105CDE90433CDE9063390
:102CD000EFF31180102383F3128823691B6A002B02
:102CE00074D06D46029B2A461BB1D3691432002B67
:102CF000FBD10B6A6BB1996839B9934209D0196855
:102D000029B15B6899680029F7D01433F3E7C3E968
:102D10000065C0B280F311882269156A002DFCD1CC
:102D20004849B1F86221052A1ADDB1F86431B1F9D8
:102D30006651B1F9680115F5004F08BFB3F5004FB2
:102D4000D1F8647114BF0123002310F5004518BFAA
:102D500001251D4303D0C4F8D070A4F8D400063A6E
:102D6000002A9CD03046B0227E2110F09DFC2846DF
:102D70000AB0BDE8F081B6F908201D46A0F8D020C1
:102D8000B6F90A30A0F8D230B6F90C30A0F8D43039
:102D900028460AB0BDE8F081C3E90075C0B280F3EF
:102DA00011882269136A002BFCD1B6F90230012583
:102DB000A4F8D0302846B6F90430A4F8D230B6F9D9
:102DC0000630A4F8D4300AB0BDE8F081C0B2C1F832
:102DD00020D080F31188304673F0B2F89CE7036985
:102DE0001A7BF2B15B69E3B190F89850CDB1D0F89D
:102DF0009C100E228C20C4F8A44001230870C4F853
:102E0000FC20114AD4F8A010C4F80421D4F89C2066
:102E1000C4F8F81084F8003184F8DC30C4F8F420E9
:102E20003DE70223012584F8DC3038E7C0B2C8F85A
:102E3000205080F31188384673F082F8B1E700BF64
:102E4000201A0124E0180124DD0304080C620B0899
:102E50002DE9F04F00F1100790F81E3197B0B6221F
:102E60007E21054638460393C64C10F01DFC4FF0FA
:102E7000640AC5484FF010084FF0E0224FF47A7E04
:102E80004FF0010907EE907A4368C3F30803002B63
:102E900040F09C82EFF31183002B40F09782D4F82E
:102EA000D4349669D4F8D4148B42F8D1D4F8A4164B
:102EB0008E42F4D8D4F8A0760EFB07F18E1BB6FB39
:102EC000F7F60EFB03664368C3F30803002B40F0DC
:102ED000E681EFF31183002B40F0E181D4F8D47444
:102EE0009369D4F8D4148F42F8D1D4F8A4168B4245
:102EF000F4D8D4F8A0160EFB01FCACEB0303B3FB33
:102F0000F1F30EFB07339B1BB3F57A7FDBD3BAF1EA
:102F1000010AB9D1AA6917EE907A1AB1938812689A
:102F20001B049361984B5B68C3F30803002B41F0CB
:102F30001B84EFF31183002B41F016844FF0E02641
:102F4000D4F8D424B069D4F8D4349A42F8D1D4F85F
:102F5000A4369842F4D8ACEB0003B3FBF1F34FF482
:102F60007A7101FB0233884E4FF0E0214FF47A7002
:102F70004FF0100E4FF0010C7268C2F30802002AE5
:102F800040F0E581EFF31182002A40F0E081D4F8AF
:102F9000D494D1F81880D4F8D4249145F7D1D4F83A
:102FA000A4269045F3D8D4F8A0A600FB0AF2A2EB21
:102FB0000802B2FBFAF200FB0922D21AB2F57A7FBC
:102FC000DAD3AB6913B11A689B8893610A22DFF8E0
:102FD000B8814FF010094FF0E0214FF47A7C4FF0A8
:102FE000010ABB46D8F80430C3F30803002B40F0B5
:102FF000D081EFF31183002B40F0CB81D4F8D4348F
:103000008E69D4F8D4048342F8D1D4F8A406864259
:10301000F4D8D4F8A0760CFB07F0801BB0FBF7F0D7
:103020000CFB0300D8F80430C3F30803002B40F076
:103030001681EFF31183002B40F01181D4F8D46492
:103040008F69D4F8D4349E42F8D1D4F8A4369F4284
:10305000F4D8D4F8A0E60CFB0EF3DB1BB3FBFEF3B5
:103060000CFB06331B1AB3F57A7FDBD3013AB9D1D7
:103070007C21584610F018FB434B5F465B68C3F356
:103080000803002B41F04C83EFF31183002B41F038
:1030900047834FF0E020D4F8D4348169D4F8D424A5
:1030A0009342F8D1D4F8A4269142F4D8D4F8A0667B
:1030B0004FF47A7000FB06F2521AB2FBF6F200FBF4
:1030C0000322314E4FF0E0214FF47A704FF0100E92
:1030D0004FF0010C7368C3F30803002B40F0158117
:1030E000EFF31183002B40F01081D4F8D494D1F881
:1030F0001880D4F8D4349945F7D1D4F8A43698453B
:10310000F3D8D4F8A0A600FB0AF3A3EB0803B3FBA3
:10311000FAF300FB09339B1AB3F57A7FDAD3002266
:103120005921384610F0C0FA174B5B68C3F3080307
:10313000002B41F0D182EFF31183002B41F0CC82C0
:103140004FF0E020D4F8D4348169D4F8D4249342E9
:10315000F8D1D4F8A4269142F4D8D4F8A0664FF45C
:103160007A7000FB06F2521AB2FBF6F200FB032261
:10317000054E4FF0E0214FF47A704FF0100E4FF0F3
:10318000010C03E0681F002400ED00E07368C3F346
:103190000803002B40F09780EFF31183002B40F0E1
:1031A0009280D4F8D494D1F81880D4F8D4349945C6
:1031B000F7D1D4F8A4369845F3D8D4F8A0A600FBEC
:1031C0000AF3A3EB0803B3FBFAF300FB09339B1AE2
:1031D000B3F57A7FDAD35E23002229698DF81730A0
:1031E0000DF117030693002307938DF824300A93FB
:1031F0000C930F9312931493012308938DF8383096
:103200008DF84C30804B0B934FF4A4730D93002337
:10321000CDE91023EFF31180102383F312882B697B
:103220001B6A002B01F0388306AE089B32461BB1A7
:10323000D3691432002BFBD10B6A002B00F0E8801D
:10324000996851B9934200F0E3801968002900F0B1
:10325000DD805B6899680029F4D01433F0E7EFF360
:10326000118789F31288D1F818E00B69DB0303D5C5
:10327000C4F89CA6D1F818E0D4F8D434FFB2D4F83E
:103280009C6687F31188D4F8A0761E440CFB07F3E4
:10329000A3EB0E03B3FBF7F30CFB0633E2E6EFF30D
:1032A000118188F3128893691769FF0302D5C4F866
:1032B0009C969369D4F8D474C9B2D4F89CC681F3AF
:1032C0001188674415E6EFF311838EF31288D1F865
:1032D0001890D1F8108018F4803F03D0C4F89CC631
:1032E000D1F81890D4F8D484DBB2D4F89CA683F338
:1032F0001188D044D4F8A0A600FB0AF3A3EB09037D
:10330000B3FBFAF300FB083361E7EFF311838EF3AD
:103310001288D1F81890D1F8108018F4803F03D0AB
:10332000C4F89CC6D1F81890D4F8D484DBB2D4F891
:103330009CA683F31188D044D4F8A0A600FB0AF31E
:10334000A3EB0903B3FBFAF300FB0833E3E6EFF367
:1033500011828EF31288D1F81890D1F8108018F4E9
:10336000803F03D0C4F89CC6D1F81890D4F8D48418
:10337000D2B2D4F89CA682F31188D044D4F8A0A687
:1033800000FB0AF2A2EB0902B2FBFAF200FB0822F0
:1033900013E6EFF3118689F312888F690B69D8035E
:1033A00002D5C4F89CA68F69D4F8D434F6B2D4F808
:1033B0009C0686F31188D4F8A06603440CFB06F043
:1033C000C01BB0FBF6F00CFB03002BE6EFF3118102
:1033D00088F3128897691369DB0302D5C4F89C96B9
:1033E0009769D4F8D434C9B2D4F89C6681F31188B3
:1033F000D4F8A01633440EFB01F6F61BB6FBF1F62B
:103400000EFB03665FE500BF34620B08C3E900767C
:10341000C0B280F311882A69136A002BFCD14FF0E7
:103420000A0ADFF8E8E34FF010084FF0E0224FF40B
:103430007A764FF00109BB46DEF80430C3F3080387
:10344000002B40F09484EFF31183002B40F08F8425
:10345000D4F8D4349069D4F8D4148B42F8D1D4F889
:10346000A4168842F4D8D4F8A07606FB07F1091A0E
:10347000B1FBF7F106FB0311DEF80430C3F30803D8
:10348000002B40F0AA83EFF31183002B40F0A583BB
:10349000D4F8D4049769D4F8D4349842F8D1D4F845
:1034A000A4369F42F4D8D4F8A0C606FB0CF3DB1B6D
:1034B000B3FBFCF306FB00335B1AB3F57A7FDBD377
:1034C000BAF1010AB8D10122592158465F4610F0DD
:1034D000EBF8CE4B5B68C3F30803002B41F0D880B8
:1034E000EFF31183002B41F0D3804FF0E020D4F8AC
:1034F000D4348169D4F8D4249342F8D1D4F8A426E2
:103500009142F4D8D4F8A0664FF47A7000FB06F22A
:10351000521AB2FBF6F200FB0322BC4E4FF0E02140
:103520004FF47A704FF0100E4FF0010C7368C3F334
:103530000803002B40F09383EFF31183002B40F03E
:103540008E83D4F8D494D1F81880D4F8D434994523
:10355000F7D1D4F8A4369845F3D8D4F8A0A600FB48
:103560000AF3A3EB0803B3FBFAF300FB09339B1A3E
:10357000B3F57A7FDAD3039B032B00F0B3869B224B
:103580004021384610F090F8A04B5B68C3F3080365
:10359000002B40F08386EFF31183002B40F07E86F2
:1035A0004FF0E020D4F8D4348169D4F8D424934285
:1035B000F8D1D4F8A4269142F4D8D4F8A0664FF4F8
:1035C0007A7000FB06F2521AB2FBF6F200FB0322FD
:1035D0008E4E4FF0E0214FF47A704FF0100E4FF006
:1035E000010C7368C3F30803002B40F01683EFF35C
:1035F0001183002B40F01183D4F8D494D1F81880B3
:10360000D4F8D4349945F7D1D4F8A4369845F3D8F2
:10361000D4F8A0A600FB0AF3A3EB0803B3FBFAF36C
:1036200000FB09339B1AB3F57A7FDAD303224121D9
:10363000384610F039F8754B5B68C3F30803002B6C
:1036400040F00886EFF31183002B40F003864FF023
:10365000E020D4F8D4348169D4F8D4249342F8D14A
:10366000D4F8A4269142F4D8D4F8A0664FF47A7026
:1036700000FB06F2521AB2FBF6F200FB0322634E85
:103680004FF0E0214FF47A704FF0100E4FF0010C24
:103690007368C3F30803002B40F04783EFF31183F3
:1036A000002B40F04283D4F8D494D1F81880D4F899
:1036B000D4349945F7D1D4F8A4369845F3D8D4F842
:1036C000A0A600FB0AF3A3EB0803B3FBFAF300FB8D
:1036D00009339B1AB3F57A7FDAD394F8C135013BED
:1036E000DBB2022B00F26183494A134493F82C2485
:1036F000120162F03202D2B2422138460FF0D4FFFA
:10370000424B5B68C3F30803002B40F07F85EFF367
:103710001183002B40F07A854FF0E020D4F8D434A8
:103720008169D4F8D4249342F8D1D4F8A4269142E4
:10373000F4D8D4F8A0664FF47A7000FB06F2521A5F
:10374000B2FBF6F200FB0322304E4FF0E0214FF4C3
:103750007A704FF0100E4FF0010C7368C3F308033A
:10376000002B40F0C082EFF31183002B40F0BB82AE
:10377000D4F8D494D1F81880D4F8D4349945F7D13A
:10378000D4F8A4369845F3D8D4F8A0A600FB0AF3E1
:10379000A3EB0803B3FBFAF300FB09339B1AB3F561
:1037A0007A7FDAD30822432138460FF07DFF174B8A
:1037B0005B68C3F30803002B40F00185EFF311832E
:1037C000002B40F0FC844FF0E020D4F8D434816921
:1037D000D4F8D4249342F8D1D4F8A4269142F4D852
:1037E000D4F8A0664FF47A7000FB06F2521AB2FBCE
:1037F000F6F200FB0322054E4FF0E0214FF47A7001
:103800004FF0100E4FF0010C04E000BF00ED00E09F
:10381000505F0B087368C3F30803002B40F041822C
:10382000EFF31183002B40F03C82D4F8D434D1F86C
:103830001880D4F8D4949945F7D1D4F8A4364345E8
:10384000F3D3D4F8A0A600FB0AF3A3EB0803B3FB61
:10385000FAF300FB09339B1AB3F57A7FDAD3039BA3
:10386000032B00F02F840422582138460FF01CFF50
:10387000CE4B5B68C3F30803002B40F09882EFF354
:103880001183002B40F093824FF0E020D4F8D42431
:103890008169D4F8D4349342F8D1D4F8A4268A426A
:1038A000F4D3D4F8A0664FF47A7000FB06F2521AF3
:1038B000B2FBF6F200FB0322DFF8F0E24FF0E0206B
:1038C0004FF47A714FF0100C0126DEF80430C3F388
:1038D0000803002B40F0F482EFF31183002B40F03B
:1038E000EF82D4F8D434D0F81880D4F8D494994521
:1038F000F7D1D4F8A4369845F3D8D4F8A0A601FBA4
:103900000AF3A3EB0803B3FBFAF301FB09339B1A99
:10391000B3F57A7FD9D30A22532138460FF0C4FE7B
:10392000A24B5B68C3F30803002B40F0A883EFF3BE
:103930001183002B40F0A3834FF0E020D4F8D4345F
:103940008169D4F8D4249342F8D1D4F8A4269142C2
:10395000F4D8D4F8A0664FF47A7000FB06F2521A3D
:10396000B2FBF6F200FB0322904E4FF0E0214FF441
:103970007A704FF0100E4FF0010C7368C3F3080318
:10398000002B40F07B82EFF31183002B40F0768216
:10399000D4F8D434D1F81880D4F8D4949945F7D118
:1039A000D4F8A4369845F3D8D4F8A0A600FB0AF3BF
:1039B000A3EB0803B3FBFAF300FB09339B1AB3F53F
:1039C0007A7FDAD302227C2138460FF06DFE774BE6
:1039D0005B68C3F30803002B40F02E83EFF31183E1
:1039E000002B40F029834FF0E020D4F8D4348169D3
:1039F000D4F8D4249342F8D1D4F8A4268A42F4D33C
:103A0000D4F8A0664FF47A7000FB06F2521AB2FBAB
:103A1000F6F200FB0322654E4FF0E0214FF47A707E
:103A20004FF0100E4FF0010C7368C3F30803002B26
:103A300040F00282EFF31183002B40F0FD81D4F8B7
:103A4000D434D1F81880D4F8D4949945F7D1D4F867
:103A5000A4364345F3D3D4F8A0A600FB0AF3A3EBA6
:103A60000803B3FBFAF300FB09339B1AB3F57A7F23
:103A7000DAD30E227D2138460FF016FE4B4B5B68E1
:103A8000C3F30803002B40F0B482EFF31183002B43
:103A900040F0AF824FF0E020D4F8D4348169D4F8FC
:103AA000D4249342F8D1D4F8A4269142F4D8D4F87F
:103AB000A0664FF47A7000FB06F2521AB2FBF6F2DF
:103AC00000FB0322394E4FF0E0214FF47A704FF0A3
:103AD000100E4FF0010C7368C3F30803002B40F085
:103AE0008981EFF31183002B40F08481D4F8D494C2
:103AF000D1F81880D4F8D4349945F7D1D4F8A43645
:103B00004345F3D3D4F8A0A600FB0AF3A3EB0803C4
:103B1000B3FBFAF300FB09339B1AB3F57A7FDAD3D0
:103B2000039B032B00F0EE8195F82131002B38D058
:103B30001C0903F00F03013C042C00F2CF861C4E3D
:103B400006EB4402B2F8300440FA03F2D20740F127
:103B5000C58601222644174C262702FA03F3013BAF
:103B6000184070F03BF896F83C342946124A184445
:103B7000002304EBC004E7802046009341F80C2F9B
:103B8000F022FEF787FBA2884FF00043B2FA82F2E0
:103B9000D34006D04FF0B042D2F880100B43C2F8A9
:103BA0008030064A022306490CE000BF00ED00E029
:103BB000505F0B0810260024452A040880F0FA0202
:103BC0008096980052085B008A429BB201D9FF2B75
:103BD000F8D9AB8217B0BDE8F08FEFF3118788F307
:103BE0001288D2F818C01369DB0303D5C4F89C9679
:103BF000D2F818C0D4F8D434FFB2D4F89C0687F3B6
:103C00001188D4F8A076184406FB07F3A3EB0C0345
:103C1000B3FBF7F306FB00334EE4EFF311838EF3AF
:103C20001288D1F81890D1F8108018F4803F03D092
:103C3000C4F89CC6D1F81890D4F8D484DBB2D4F878
:103C40009CA683F31188D044D4F8A0A600FB0AF305
:103C5000A3EB0903B3FBFAF300FB0833E2E4EFF351
:103C600011838EF31288D1F81890D1F8108018F4CF
:103C7000803F03D0C4F89CC6D1F81890D4F8D484FF
:103C8000DBB2D4F89CA683F31188D044D4F8A0A664
:103C900000FB0AF3A3EB0903B3FBFAF300FB0833C1
:103CA00065E4EFF311838EF31288D1F81890D1F800
:103CB000108018F4803F03D0C4F89CC6D1F8189047
:103CC000D4F8D484DBB2D4F89CA683F31188D04412
:103CD000D4F8A0A600FB0AF3A3EB0903B3FBFAF3A5
:103CE00000FB0833B7E5EFF311838EF31288D1F8A8
:103CF0001890D1F8108018F4803F03D0C4F89CC607
:103D0000D1F81890D4F8D484DBB2D4F89CA683F30D
:103D10001188D044D4F8A0A600FB0AF3A3EB090352
:103D2000B3FBFAF300FB083338E5EFF311838EF3AE
:103D30001288D1F81890D1F8108018F4803F03D081
:103D4000C4F89CC6D1F81890D4F8D484DBB2D4F867
:103D50009CA683F31188D044D4F8A0A600FB0AF3F4
:103D6000A3EB0903B3FBFAF300FB0833B1E4EFF371
:103D7000118088F3128897691369D90302D5C4F8B2
:103D80009C969769D4F8D434C0B2D4F89C1680F3CA
:103D90001188D4F8A0060B4406FB00F1C91BB1FB47
:103DA000F0F106FB0311FFF767BBCD22A4E4EFF3AC
:103DB0001182102383F312884FF0E0239969186968
:103DC000C00303D50121C4F89C169969D4F8D40422
:103DD000D2B2D4F89C3682F311881A18D4F8A066AF
:103DE0004FF47A7000FB06F35B1AB3FBF6F300FBAB
:103DF000023261E5EFF311838EF31288D1F8189047
:103E0000D1F8108018F4803F03D0C4F89CC6D1F8D4
:103E10001890D4F8D484DBB2D4F89CA683F311882C
:103E2000D044D4F8A0A600FB0AF3A3EB0903B3FB2C
:103E3000FAF300FB08336FE6EFF311838EF3128879
:103E4000D1F81890D1F8108018F4803F03D0C4F84E
:103E50009CC6D1F81890D4F8D484DBB2D4F89CA6D0
:103E600083F31188D044D4F8A0A600FB0AF3A3EB97
:103E70000903B3FBFAF300FB0833F6E5EFF3118314
:103E80008EF31288D1F81890D1F8108018F4803F82
:103E900003D0C4F89CC6D1F81890D4F8D484DBB20F
:103EA000D4F89CA683F31188D044D4F8A0A600FBD4
:103EB0000AF3A3EB0903B3FBFAF300FB08337DE538
:103EC000EFF311838CF31288D0F81890D0F810809B
:103ED00018F4803F03D0C4F89C66D0F81890D4F84A
:103EE000D484DBB2D4F89CA683F31188D044D4F8F0
:103EF000A0A601FB0AF3A3EB0903B3FBFAF301FB52
:103F0000083304E5B0227E2138460FF0CDFBBE4BCE
:103F10005B68C3F30803002B40F09B85EFF311832C
:103F2000002B40F096854FF0E020D4F8D41482693D
:103F3000D4F8D4348B42F8D1D4F8A4169142F4D3F7
:103F4000D4F8A0064FF47A7101FB00F6B61AB6FB5E
:103F5000F0F601FB0366DFF8B0824FF0E0214FF48A
:103F60007A774FF0100ED8F804304FF0010CC3F3FD
:103F700008030BBBEFF31183F3B9D4F8D424886999
:103F8000D4F8D4349342F8D1D4F8A4269042F4D88B
:103F9000D4F8A09607FB09F2121AB2FBF9F207FB5C
:103FA00003239B1BB3F57A7FBFF4BEADD8F8043072
:103FB000C3F30803002BDDD0EFF311838EF31288D7
:103FC00088690A69D20302D5C4F89CC68869D4F806
:103FD000D494DBB2D4F89C2683F311884A44D4F8F5
:103FE000A09607FB09F31B1AB3FBF9F307FB023397
:103FF000D7E7EFF31182102383F312884FF0E02309
:1040000099691869C60303D50121C4F89C169969FA
:10401000D4F8D404D2B2D4F89C3682F311881A189A
:10402000D4F8A0664FF47A7000FB06F35B1AB3FB7A
:10403000F6F300FB023245E5EFF31182102383F320
:1040400012884FF0E02399691869C00303D5012154
:10405000C4F89C169969D4F8D404D2B2D4F89C362A
:1040600082F311881A18D4F8A0664FF47A7000FB16
:1040700006F35B1AB3FBF6F300FB0232CBE4EFF37B
:104080001182102383F312884FF0E0239969186995
:10409000C60303D50121C4F89C169969D4F8D40449
:1040A000D2B2D4F89C3682F311881A18D4F8A066DC
:1040B0004FF47A7000FB06F35B1AB3FBF6F300FBD8
:1040C000023251E40222582138460FF0EDFA4E4BED
:1040D0005B68C3F30803002B40F0E883EFF3118320
:1040E000002B40F0E3834FF0E020D4F8D434816912
:1040F000D4F8D4249342F8D1D4F8A4269142F4D829
:10410000D4F8A0664FF47A70DFF8FCE04FF0100CA2
:1041100000FB06F2521A4FF0E021B2FBF6F200FB70
:104120000322DEF804304FF47A700126C3F308034B
:104130001BBBEFF3118303BBD4F8D434D1F8188040
:10414000D4F8D4949945F7D1D4F8A4369845F3D847
:10415000D4F8A0A600FB0AF3A3EB0803B3FBFAF321
:1041600000FB09339B1AB3F57A7FBFF4D4ABDEF8BA
:104170000430C3F30803002BDBD0EFF311838CF37F
:104180001288D1F81890D1F8108018F4803F03D02D
:10419000C4F89C66D1F81890D4F8D484DBB2D4F873
:1041A0009CA683F31188D044D4F8A0A600FB0AF3A0
:1041B000A3EB0903B3FBFAF300FB0833D2E7EFF3F9
:1041C0001182102383F312884FF0E0239969186954
:1041D000C00303D50121C4F89C169969D4F8D4040E
:1041E000D2B2D4F89C3682F311881A18D4F8A0669B
:1041F0004FF47A7000FB06F35B1AB3FBF6F300FB97
:104200000232FFF7F8BA00BF00ED00E0EFF31182D1
:10421000102383F312884FF0E02399691869C603CD
:1042200003D50121C4F89C169969D4F8D404D2B2FC
:10423000D4F89C3682F311881A18D4F8A0664FF48B
:104240007A7000FB06F35B1AB3FBF6F300FB023255
:10425000FFF77ABAEFF31182102383F312884FF03D
:10426000E02399691869C00303D50121C4F89C169D
:104270009969D4F8D404D2B2D4F89C3682F3118868
:104280001A18D4F8A0664FF47A7000FB06F35B1A94
:10429000B3FBF6F300FB0232FFF7F1B9EFF3118243
:1042A000102383F312884FF0E02399691869C6033D
:1042B00003D50121C4F89C169969D4F8D404D2B26C
:1042C000D4F89C3682F311881A18D4F8A0664FF4FB
:1042D0007A7000FB06F35B1AB3FBF6F300FB0232C5
:1042E000FFF776B90022482138460FF0DDF9C94BB7
:1042F0005B68C3F30803002B40F0FC82EFF31183EB
:10430000002B40F0F7824FF0E020D4F8D4348269DB
:10431000D4F8D4148B42F8D1D4F8A4168A42F4D835
:10432000D4F8A0064FF47A7101FB00F6B61AB6FB7A
:10433000F0F601FB0366DFF8DC924FF0E0214FF46A
:104340007A7C4FF010084FF0010ED9F80430C3F317
:104350000803002B40F08382EFF31183002B40F021
:104360007E82D4F8D4348869D4F8D4249342F8D126
:10437000D4F8A4269042F4D8D4F8A0A60CFB0AF2F4
:10438000121AB2FBFAF20CFB03239B1BB3F57A7FE4
:10439000DBD38022492138460FF086F99D4B5B68BC
:1043A000C3F30803002B40F03183EFF31183002B9C
:1043B00040F02C834FF0E020D4F8D4348269D4F854
:1043C000D4148B42F8D1D4F8A4168A42F4D8D4F885
:1043D000A0064FF47A7101FB00F6B61AB6FBF0F6B0
:1043E00001FB0366DFF82C924FF0E0214FF47A7C5A
:1043F0004FF010084FF0010ED9F80430C3F3080352
:10440000002B40F00F82EFF31183002B40F00A8263
:10441000D4F8D4348869D4F8D4249342F8D1D4F8A9
:10442000A4269042F4D8D4F8A0A60CFB0AF2121AE3
:10443000B2FBFAF20CFB03239B1BB3F57A7FDBD3B1
:104440000022452138460FF02FF9724B5B68C3F309
:104450000803002B40F0B782EFF31183002B40F0EC
:10446000B2824FF0E020D4F8D4348269D4F8D41466
:104470008B42F8D1D4F8A4168A42F4D8D4F8A00616
:104480004FF47A7101FB00F6B61AB6FBF0F601FBA9
:104490000366DFF880914FF0E0214FF47A7C4FF013
:1044A00010084FF0010ED9F80430C3F30803002BB5
:1044B00040F09B81EFF31183002B40F09681D4F8FC
:1044C000D4348869D4F8D4249342F8D1D4F8A426FB
:1044D0009042F4D8D4F8A0A60CFB0AF2121AB2FB50
:1044E000FAF20CFB03239B1BB3F57A7FDBD3062286
:1044F000462138460FF0D8F8464B5B68C3F30803F3
:10450000002B40F03D82EFF31183002B40F0388206
:104510004FF0E020D4F8D4348269D4F8D4148B421C
:10452000F8D1D4F8A4168A42F4D8D4F8A0064FF4EF
:104530007A7101FB00F6B61AB6FBF0F601FB0366D2
:10454000DFF8D0904FF0E0214FF47A7C4FF0100864
:104550004FF0010ED9F80430C3F30803002B40F0EC
:104560002781EFF31183002B40F02281D4F8D4345B
:104570008869D4F8D4249342F8D1D4F8A426904280
:10458000F4D8D4F8A0A60CFB0AF2121AB2FBFAF285
:104590000CFB03239B1BB3F57A7FDBD3002247215F
:1045A00038460FF081F81B4B5B68C3F30803002B00
:1045B00040F0C381EFF31183002B40F0BE814FF038
:1045C000E020D4F8D4348269D4F8D4148B42F8D1E2
:1045D000D4F8A4168A42F4D8D4F8A0064FF47A711D
:1045E00001FB00F6B61AB6FBF0F601FB0366DFF836
:1045F00024904FF0E0214FF47A7C4FF01008D9F866
:1046000004304FF0010EC3F3080323BBEFF3118313
:104610000BBB01E000ED00E0D4F8D4348869D4F895
:10462000D4249342F8D1D4F8A4269042F4D8D4F8F4
:10463000A0A60CFB0AF2121AB2FBFAF20CFB03233F
:104640009B1BB3F57A7FBEF49AAFD9F80430C3F35D
:104650000803002BDAD0EFF3118388F312888869FE
:104660000A69D20302D5C4F89CE68869D4F8D42438
:10467000DBB2D4F89CA683F311885244D4F8A0A6E8
:104680000CFB0AF31B1AB3FBFAF30CFB0233D7E75C
:10469000EFF31182102383F312884FF0E02399691E
:1046A0001869C60303D50121C4F89C169969D4F88A
:1046B000D404D2B2D4F89C3682F311881A18D4F8F4
:1046C000A0664FF47A7000FB06F35B1AB3FBF6F3B7
:1046D00000FB0232FEF721BFEFF31182102383F3B8
:1046E00012884FF0E02399691869C00303D50121AE
:1046F000C4F89C169969D4F8D404D2B2D4F89C3684
:1047000082F311881A18D4F8A0664FF47A7000FB6F
:1047100006F35B1AB3FBF6F300FB0232FEF728BD8B
:10472000EFF31182102383F312884FF0E02399698D
:104730001869C60303D50121C4F89C169969D4F8F9
:10474000D404D2B2D4F89C3682F311881A18D4F863
:10475000A0664FF47A7000FB06F35B1AB3FBF6F326
:1047600000FB0232FEF7ADBCEFF31182102383F39E
:1047700012884FF0E02399691869C60303D5012117
:10478000C4F89C169969D4F8D404D2B2D4F89C36F3
:1047900082F311881A18D4F8A0664FF47A7000FBDF
:1047A00006F35B1AB3FBF6F300FB0233FEF7DBBB49
:1047B000EFF3118388F3128888690A69D20302D55E
:1047C000C4F89CE68869D4F8D424DBB2D4F89CA65B
:1047D00083F311885244D4F8A0A60CFB0AF31B1AE9
:1047E000B3FBFAF30CFB0233D4E6EFF3118388F347
:1047F000128888690A69D20302D5C4F89CE68869E0
:10480000D4F8D424DBB2D4F89CA683F311885244A4
:10481000D4F8A0A60CFB0AF31B1AB3FBFAF30CFBAB
:10482000023360E6EFF3118388F3128888690A691E
:10483000D20302D5C4F89CE68869D4F8D424DBB24C
:10484000D4F89CA683F311885244D4F8A0A60CFB9C
:104850000AF31B1AB3FBFAF30CFB0233ECE5EFF39C
:10486000118388F3128888690A69D20302D5C4F8D3
:104870009CE68869D4F8D424DBB2D4F89CA683F3F0
:1048800011885244D4F8A0A60CFB0AF31B1AB3FB00
:10489000FAF30CFB023378E506ABC0B20B6280F38F
:1048A0001188384671F04CFBFEF7B5BDEFF311826D
:1048B000102383F312884FF0E02399691869C60327
:1048C00003D50121C4F89C169969D4F8D404D2B256
:1048D000D4F89C3682F31188034411E4002329465E
:1048E0006E48F022009341F80C0F1846FDF7D2FCF9
:1048F000FFF757B9EFF31182102383F312884FF0BB
:10490000E02399691869C00303D50121C4F89C16F6
:104910009969D4F8D464D2B2D4F89C3682F3118861
:104920004FF47A72D4F8A006334402FB00F6761AEC
:10493000B6FBF0F602FB0366FDE4EFF311821023F1
:1049400083F312884FF0E02399691869C00303D5F7
:104950000121C4F89C169969D4F8D464D2B2D4F871
:104960009C3682F311884FF47A72D4F8A00633444F
:1049700002FB00F6761AB6FBF0F602FB036636E69B
:10498000EFF31182102383F312884FF0E02399692B
:104990001869C00303D50121C4F89C169969D4F89D
:1049A000D464D2B2D4F89C3682F311884FF47A7270
:1049B000D4F8A006334402FB00F6761AB6FBF0F6F4
:1049C00002FB0366BCE5EFF31182102383F3128828
:1049D0004FF0E02399691869C00303D50121C4F899
:1049E0009C169969D4F8D464D2B2D4F89C3682F378
:1049F00011884FF47A72D4F8A006334402FB00F613
:104A0000761AB6FBF0F602FB036642E5EFF311827D
:104A1000102383F312884FF0E02399691869C003CB
:104A200003D50121C4F89C169969D4F8D464D2B294
:104A3000D4F89C3682F311884FF47A72D4F8A00629
:104A4000334402FB00F6761AB6FBF0F602FB03666F
:104A5000C8E4EFF31182102383F312884FF0E023B0
:104A600099691869C00303D50121C4F89C16996996
:104A7000D4F8D464D2B2D4F89C3682F311884FF4BF
:104A80007A72D4F8A006334402FB00F6761AB6FB1D
:104A9000F0F602FB0366FFF75EBA00BF452A040882
:104AA00070B58E4C92B094F82839012B00F0F2804A
:104AB000022B00F0E480002B00F08D80884D02AEC8
:104AC000D4F82C1995F8AC335B064CBF4FF4F07357
:104AD0004FF4C3730022A5F8AE330123039285F887
:104AE000B0338DF814308DF828300B927D4BCDE922
:104AF0000622CDE908227C4A03F5C0731A6002F150
:104B000002125A6002F102129A6002F10212DA6095
:104B100002F102121A6102F102125A6102F102124A
:104B20009A6102F10212DA61029320230493EFF3F7
:104B30001180102383F31288D4F82C391B6A002BC0
:104B400000F0B980049B32461BB1D3691432002BAC
:104B5000FBD10B6A73B1996839B99A420AD01968C6
:104B600029B15B6899680029F7D01433F3E75F4AED
:104B70005E601A60C0B280F31188D4F82C39196ACB
:104B80000029FCD195F8AC2358480EF08DFD94F81F
:104B9000C429022155480EF087FD94F8C529032148
:104BA00052480EF081FD94F8C63993B1012B7BD0A9
:104BB000032B14BFC722F72201214C480EF074FDCD
:104BC000B5F8AE2300214A4812B0BDE8704071F03C
:104BD0003BB84722F0E70DF10601A0200122039324
:104BE00002910DF107018DF80600002008910021C7
:104BF00004928DF8143009928DF828200B930E93AF
:104C00008DF83C201093CDE90C01CDE90633D4F8A2
:104C10002C19EFF31180102383F31288D4F82C3968
:104C20001B6A002B4FD002AE049B32461BB1D369E6
:104C30001432002BFBD10B6A73B1996839B99A42CF
:104C40000AD0196829B15B6899680029F7D0143334
:104C5000F3E7264AC3E90026C0B280F31188D4F8EE
:104C60002C190B6A002BFCD19DF8073003F00602CB
:104C7000022A1BD01A4D482385F8AC3311E00823D3
:104C8000174DD4F82C190DEB030685F8AC334FF40F
:104C9000C3731FE7124D4823D4F82C1902AE85F8D0
:104CA000AC334FF4F07315E7872285E70C4D0823EA
:104CB00085F8AC33EBE7C0B20E6280F311880B4885
:104CC00071F03EF959E702AEC0B20E6280F311886E
:104CD00004F62C1071F034F9C1E700BF681F0024FE
:104CE00000000024E0180124100111019428002480
:104CF0003029002410B10022FDF766BB704700BFC9
:104D00000E4B70B5D3F86464002E14DD0C4C0025F6
:104D100003E0B54204F120040DD0237F0135002BC0
:104D2000F7D0E06800220028F3D0217D2034FDF781
:104D30004BFBB542F1D1012070BD00BFFC1000203B
:104D40003C040020F8B590F8EE311C09013C042C1D
:104D50000FD81B4E054603F00F0306EB4402B2F8D2
:104D6000300440FA03F2D20703D595F8F971012F08
:104D700001D00120F8BD07FA03F33444013B184089
:104D80006EF02CFF94F83C2413180E4A02EBC3017A
:104D900052F833208B8810691840EBD0002395F827
:104DA000EF210846022185F8F931FDF70DFBD5F812
:104DB00050213846136843F008031360F8BD00BF64
:104DC000505F0B0810260024014B53F82000704759
:104DD00050400058014B43F8201070475040005895
:104DE00019481A4B01681A4A41F4807130B40160C5
:104DF00082B0D3F8F410FF24CA2041F48031C3F804
:104E0000F410D3F8F41001F4803101915321019D85
:104E1000546250625162D3F8D030DB010CD40D4B98
:104E200000210D4A43F8041B9342FBD1084B0B4A67
:104E30001A6502B030BC7047126D084B9A42EED131
:104E400002B030BC704700BF00480258004402580E
:104E500000400058544000586C400058316665428C
:104E6000F0B50446D0F85C01454B83B0A16804F569
:104E7000967204F1E0070E68C1B220F0FF000192C3
:104E80001039A3FB013109096CF066F9D4F81C1143
:104E90000023019A012984F8203118D0042916D062
:104EA000102958D0402912D0B1F5807F56D0B1F5E5
:104EB000806F53D0B1F5805F58D0B1F5803F4FF08F
:104EC0003C030CBF6FF0080C6FF4006C01E06FF056
:104ED000080C06F118053046E95801EA0C01E950C2
:104EE000D4F81C116BF0D8FDD4F81C31012B16D06E
:104EF000042B14D0102B0FD0402B10D0B3F5807F93
:104F000030D0B3F5806F2DD0B3F5805F32D0B3F5DC
:104F1000803F06F1540502D04FF4006100E0082103
:104F20002B683A46D4F85C010B4340212B60C4F84F
:104F3000E810C1B2124B20F0FF001039A3FB013181
:104F400009096CF0B9F8D4F85C21136843F0100338
:104F5000136003B0F0BD6FF4006CBAE76FF0080C9B
:104F60000423B6E706F11C050821D9E76FF4006CAD
:104F70000423AEE706F11C054FF40061D0E700BF43
:104F8000ABAAAAAA2DE9F04FDFF848B185B09BF88B
:104F9000004024B90124204605B0BDE8F08F474BFE
:104FA000D3F8D45412F082FF454A92F8B83B002B54
:104FB00000F0BC81434B02F17C070BF5A76400268F
:104FC000A3FB0513404D5B09A5FB0315ED0805EB9D
:104FD0008505A3EB4505D2F87C3BC31A0193EBB2E0
:104FE00007EB8505029302F557730093019A002A97
:104FF00004DBD4F82431934200F37C814FF4B47382
:1050000003FB06B393F85836002B00F0C080D4F8A9
:105010005C11A3682D481A68CBB221F0FF01103B48
:10502000A0FB03032A481B09C35C19444B68A189F0
:105030001FFA83FED368CEF1160E23EA0103BEF1F8
:10504000070FD36040F2A3801D4A0121D2F86433D8
:105050008A460133C2F864330022D4F864319046A2
:105060009C4603935CF8049B48461DE0DCF80090E6
:10507000B8F1140FA9EB000348462DDC13F1080921
:1050800048BF03F117094FEA291308EB291803F168
:10509000FF39013102FA03F30CF1040C0AFA09F2A8
:1050A0008E4542EA030217D38E45DFD8C8F11503B7
:1050B000DCF800004FF01508E9E700BF681F002486
:1050C000FC1000201F85EB51CDCCCCCCABAAAAAAFA
:1050D000C8FB0B0804000020B8F1150F40F0008158
:1050E0009649C2F38423C2F3441001EB830301EB1E
:1050F0008000D3F84434D0F844041B0243EA001380
:1051000002F01F00C2F3C43201EB800001EB820207
:10511000D0F84414D2F844240B4343EA023383EA20
:10512000132282EA121202F00F020F2A40F0D880F6
:10513000C3F30F134FF6FF72934200F0D180B3F523
:10514000606F00F0DC80009A938197F858200298F5
:1051500082420CD0A9683A68521A3A607A68296B80
:10516000521A7A600022AA602A6387F858003A68C7
:1051700001323A60AA680132AA604FF6FF72934288
:1051800005D17B6801337B602B6B01332B63009B64
:10519000204601365C3714335C3504F5B474009353
:1051A000FFF75EFE664B93F8B83BB3423FF71EAF86
:1051B00063480121002280F86014C0F87C2B002B8A
:1051C0003FF4E8AE9BF81026DBF8540612F0020F0D
:1051D000DBF8402511680A6A0CBF024342EA8002EC
:1051E000012B0A623FF4D6AE9BF87827DBF8BC07A8
:1051F00012F0020FDBF8A82611680A6A0CBF0243FE
:1052000042EA8002022B0A623FF4C4AE9BF8E02817
:10521000DBF8240912F0020FDBF8102811680A6A83
:105220000CBF024342EA8002032B0A623FF4B2AE93
:105230009BF8482ADBF88C0A12F0020FDBF8782979
:1052400011680A6A0CBF024342EA8002042B0A6218
:105250003FF4A0AE9BF8B02BDBF8F40B12F0020F7A
:10526000DBF8E02A11680A6A0CBF024342EA8002B6
:10527000052B0A623FF48EAE9BF8182DDBF85C0D0F
:1052800012F0020FDBF8482C11680A6A0CBF0243C7
:1052900042EA8002062B0A623FF47CAE9BF8802E25
:1052A000DBF8C40E12F0020FDBF8B02D11680A6AA9
:1052B0000CBF024342EA8002082B0A627FF46AAE06
:1052C0009BF8E83FDBF8182F13F0020F1D4B126814
:1052D000D96A136A14BF43EA81030B43136259E688
:1052E000174AD2F860330133C2F86033B6B14FF6D3
:1052F000FF732AE70024204605B0BDE8F08F12496D
:105300004A7802EB420201EBC2023244527C0D2A7F
:105310007FF419AF802200998A7716E70399582203
:105320000A4870F01DFC4FF6FF730EE70449012296
:10533000C1F87C3B81F860242DE600BF505F0B086C
:10534000FC10002004100020681F00240415002019
:10535000D0F850112422F8B5C0F8D02104460A68CC
:105360000023806804F5A87522F001020A600B6032
:105370004B608B6094F805C0C4F8D83184F8CC3108
:10538000C4F8D031C4F86831C4F8D431C4F87031ED
:10539000C4F864314FEA8C23B44A03F48053C4F850
:1053A00054019142C4F858314FEA0C3303F40053CE
:1053B000C4F85C314FEA0C2303F48063C4F8603115
:1053C00000F0AE81237913F0010002D00422C4F86A
:1053D000642113F0020305D0D4F8642142F00802DE
:1053E000C4F864211CF0010F0DD048B1D4F8782125
:1053F00042F00202C4F878214FF48032C4F88021D0
:10540000002B40F081819A4B03F12C0053F8042BC0
:10541000944200F03F819842F8D11CF0080F40F010
:105420004F81D4F8D031002B00F09C8124232846F2
:10543000C4F8D0310B6823F001030B605CF0D6FD9B
:10544000012815D0D4F87831002B40F09181D4F8A0
:10545000503128465A6822F490425A609A6822F0E5
:105460002A029A601A6842F001021A606BF072FF19
:105470002379DA076DD5D4F82C21002A00F05F815A
:105480000023D4F8341104F13C06E2634FF4806247
:10549000C4F8B8103046E264C4E91133C4E91433E7
:1054A000C4E91833C4E91A334FF48033E3654FF489
:1054B0008073A3656CF0A4FD304655F00FF8D4F866
:1054C000D431C4F8C861202B65673DD1E3686269B7
:1054D00099B2CAB3B1FA81F04009A9B394F8CCC12A
:1054E000BCF1010F30D02227C4F8D80194F870C065
:1054F000C4F8D4715F4FA4F8AC110121A7675E4FC7
:105500008C45C4F8A821E7675C4FC4F88C0084F888
:10551000CC11C4F888700ED094F8717084F87010B3
:10552000012FD4F8501100F02B814FF4006384F860
:105530007000C4F89030102100222023C4F8D81144
:1055400084F8CC21C4F8D031E26B23795268C4F8D6
:1055500044219B0740F18880D4F83021002A00F0D4
:10556000E3800023D4F8381104F1B406C4F8B42061
:10557000C4F8C0304022C4F8D0303046C4E93233D9
:10558000C4E93633C4E938334FF48033C4F8D43037
:105590004FF48063C4E92E12C4F8C4306CF030FDBF
:1055A000304654F09BFF002840F0B980D4F8B42076
:1055B000334B34483449824218BF9A42C4F8C4611C
:1055C000C4F8EC5000F160000CBF012300232F4C05
:1055D0008A4208BF43F001033031A24208BF43F0C2
:1055E000010360348A4208BF43F001033031824234
:1055F00008BF43F0010300F568708A4208BF43F01A
:10560000010301F55C71A24208BF43F0010304F5F8
:1056100068748A4208BF43F001033031824208BFF8
:1056200043F0010360308A4208BF43F00103303188
:10563000A24208BF43F001038A4208BF43F00103BE
:105640003031824208BF43F001038A4208BF43F071
:1056500001033BB90E4BD31AB3FA83F35B09002B5A
:1056600000F0A78000235360F8BD00BF000C005875
:10567000BC1C002041C0090875C0090879C0090890
:105680001000024028000240400002405800024042
:10569000B8040240002C3FF4C0AE94F8F831002B5F
:1056A0003FF4BBAED4F878311CF0080F43F0080388
:1056B000C4F878314FF40043C4F888313FF4B1AEF8
:1056C000D4F8D031002B50D024232846C4F8D03150
:1056D0000B6823F001030B605CF088FC01283FF4A9
:1056E000C7AED4F87831002B46D1D4F850312846D3
:1056F0005A6822F490425A609A6822F022029A6014
:105700009A6842F00802ACE6D4F8783143F001031D
:10571000C4F878314FF40033C4F87C3173E6FEE707
:105720000423C4F874314DE6D4F8DC311A6842F031
:1057300080021A601A6842F040021A60F8BDD4F87C
:10574000DC21116841F480711160916841F0010120
:105750009160116841F020011160116841F0100161
:105760001160F6E684F8CC3160E684F8CC31ABE722
:1057700028465CF017FF6AE628465CF013FFB4E7A2
:105780009BB22431304655F0C9F800287FF4D3AEDF
:10579000D4F8503184F8CC011A6842F480721A604F
:1057A0009A6842F001029A609A6842F040029A6058
:1057B000CAE65360F8BD00BFF8B50446EFF31185A3
:1057C000502383F31288D0F830311B6803F00103B3
:1057D0001BB1EDB285F31188F8BDD0F8D021D0F817
:1057E000D4110A4302F02102212AF2D0D0E9092182
:1057F0008A424FD04BD800691A46431A9BB2A26224
:10580000002284F8E021D4F8D021202AE1D1A26935
:105810005118DED0B3FA83F25209002BD9D094F894
:10582000CC010128D5D02120A4F8A6314FF0010CDD
:10583000C4F8D821C4F8D001D4F8C401C4F8A01128
