:020000040800F2
:100000000000022021510B08A5510B08BD5906081C
:10001000A5510B08A5510B08A5510B0800000000C5
:10002000000000000000000000000000A5510B08C7
:10003000A5510B0800000000A5510B08F9F70408B2
:10004000A5510B08A5510B08A5510B08A5510B088C
:10005000A5510B08A5510B08D5A90408D9A9040876
:10006000DDA90408E1A90408E5A9040885400408FD
:1000700099400408AD400408C1400408D540040874
:10008000E9400408FD400408A5510B08A5510B08E0
:10009000A5510B08A5510B08A5510B08E9A90408A7
:1000A000A5510B08A5510B08A5510B08F1420408F6
:1000B00005430408194304082D430408AD3304081C
:1000C000A1330408E1330408D5330408A5510B0813
:1000D000A5510B08994C0408A54C0408B14C040820
:1000E000EDA90408A5510B080000000069430408AD
:1000F000B9430408E14304085543040811410408C6
:10010000A5510B08A5510B0841430408A5510B0844
:10011000BD4C0408C94C0408A5510B0831680408FB
:1001200025410408394104084D410408614104088F
:1001300075410408A5510B08A5510B08A5510B08E2
:1001400000000000000000000000000000000000AF
:10015000894104089D410408B1410408A5510B08D8
:100160001534040809340408A5510B08A5510B08DF
:10017000A5510B08A5510B08A5510B080000000064
:10018000A5510B08A5510B08D54C0408E14C0408F7
:10019000A5510B08A5510B08A5510B08A5510B083B
:1001A000A5510B08A5510B08A5510B08A5510B082B
:1001B000A5510B08A5510B08A5510B08A5510B081B
:1001C000A5510B08A5510B08A5510B08A5510B080B
:1001D000A5510B08DD530408A5510B08A5510B08C8
:1001E000A5510B08A5510B08A5510B08A5510B08EB
:1001F000A5510B08A5510B08A5510B08A5510B08DB
:10020000A5510B08A5510B08A5510B08A5510B08CA
:100210007D43040891430408A5430408A5510B0835
:10022000A5510B08A5510B08A5510B0800000000B3
:10023000A5510B08A5510B0800000000A5510B08A3
:10024000A5510B08A5510B08A5510B08A5510B088A
:10025000A5510B08A5510B08A5510B08A5510B087A
:10026000A5510B08A5510B08A5510B08A5510B086A
:10027000A5510B08A5510B08A5510B080000000063
:10028000A5510B0800000000A5510B08000000005C
:0802900000000000A5510B085D
:0802980088410B000100000089
:1002A000A07D01240207000001054700C07D012454
:1002B0000208000001024300E07D0124011100005A
:1002C00000017600007E01240129010000011800D0
:1002D000207E01240121000000014800407E01240D
:1002E0000122000000014900607E0124012300007A
:1002F00000014A00807E01240124000000014B001F
:10030000A07E01240125000000014C00C07E0124D4
:100310000126000000014D00E07E012401270000BD
:1003200000014E00007F01240128000000014F0061
:10033000207F0124012C000000012900407F0124BE
:10034000012D010000012900607F0124012E010020
:1003500000017000807F01240130000000013100A5
:10036000A07F0124012F010000015200C07F012461
:100370000131010000012800E07F01240132010069
:100380000001280000800124022A050000033D002E
:10039000208001240135000000013C004080012440
:0803A0000138000000012000FB
:020000040804EE
:10000000836B5A6D12F0500F5A6D1AD1196842F471
:1000100000725A650A6812F0080FCA6816D012F406
:10002000406F15D1CA68920412D45A6D22F48072BE
:100030005A655A6DD1040BD45A6D42F001025A65CB
:100040007047D20604D4DB6CDB6C18479007ECD009
:10005000704700BF704700BF836B5A6D42F040028B
:100060005A659A6D42F004029A65704702685549D4
:1000700038B5554B554D564CAA4218BF9A420CBF45
:10008000012300238A4208BF43F001033031A2421A
:1000900008BF43F0010330348A4208BF43F0010334
:1000A0003031A24208BF43F0010330348A4208BF16
:1000B00043F0010301F55C71A24208BF43F0010364
:1000C00004F55C748A4208BF43F001033031A24258
:1000D00008BF43F0010330348A4208BF43F00103F4
:1000E0003031A24208BF43F0010330348A4208BFD6
:1000F00043F001033031A24208BF43F001038A42BA
:1001000008BF43F0010313B9324B9A4208D10423CC
:1001100080F83530136823F001031360002038BDE8
:100120002D4B2E4D1168AA4218BF9A422C4C21F03B
:100130000E0105F13C050CBF012300231160A24212
:1001400008BF43F0010311682834AA4208BF43F0F6
:10015000010321F00101A24208BF43F0010314345E
:100160001160A24208BF43F001031E498A4208BF42
:1001700043F0010313B91C4B9A4217D10123856D3B
:10018000D0E91714226801F01F0122F480728B401D
:1001900022606B60C36ED0E91921516033B11A68D7
:1001A000D0E91C1422F480721A604C6001210022F4
:1001B000036D80F8351080F83420002BAED09847BE
:1001C000ACE700BF4000024010000240280002409F
:1001D00058000240B80402401C5402580854025807
:1001E0003054025880540258945402580168002236
:1001F0000B6880F842205A0410B40ED50B6823F423
:1002000080430B6090F84130292B10D090F841309A
:100210002A2B24D05DF8044B70471B04F2D50B68E1
:1002200023F400430B6090F84130292BEED12822B3
:10023000212380F841200022036390F841300C68AC
:1002400003F02803282B14BF6FF0F2036FF0420372
:1002500023405DF8044B0B6080F840207047282253
:10026000222380F841200022036390F841300C687B
:1002700003F02803282B14BF6FF0F4036FF044033E
:1002800023405DF8044B0B6080F84020704700BFAE
:100290000023202210B4174C4363C462036380F828
:1002A000412080F842304B07026811D5526A436AF8
:1002B0001A70436A028D013343624AB1438D013A99
:1002C000013B02859BB24385436C43F004034364C6
:1002D0000368102490F84120002190F841201A680A
:1002E00022F0FE021A60DC615DF8044B80F84010D9
:1002F000704700BF0000FFFF70B5574B002590F816
:100300004120044680F84250283AC3624585436C38
:10031000022A41EA0301036841642FD890F8411092
:1003200090F84120282001F0280102F02802282915
:1003300014BFF6214621282A1A680CBFC9436FF062
:10034000F6010A4045491A6084F84100A06B226B0F
:10035000616318B1112A42D0212A40D0E06B18B154
:10036000122A51D0222A4FD094F84130602B4FF0FE
:1003700000032DD0236384F8403070BD90F84120F5
:1003800090F841201A6822F0FE021A609A699207DA
:1003900000D59D629A69D60703D49A6942F001029A
:1003A0009A6194F84120602A10D0202284F84120DC
:1003B0009A6995060AD59A69D00605D51022DA61A0
:1003C000626C42F0040262642022DA610021BDE71F
:1003D000202284F8403084F84120236370BD1A68DD
:1003E00051042CD490F83530012BBDD000221C4B89
:1003F000036584F8402090F83520022A24D080221A
:100400004265BDE8704018471A68120403D51A689F
:1004100022F400421A6090F83530012BA4D000225B
:100420000F4B036584F8402090F83520022AE6D16E
:10043000FFF71CFE0028A0D0E06B036DE1E71A680F
:1004400022F480421A60CDE7FFF710FE002894D016
:10045000A06B036DD5E700BF0000FFFFDD040408BB
:100460002D08040803689A69196810B4D40528D5C2
:100470000C0606D4416C11F00B0F1FD15DF8044B34
:100480007047416C4FF4807441F0010141645105A3
:10049000DC6120D5416C4FF48064920541F0080185
:1004A0004164DC61E6D5426C4FF4007142F0020217
:1004B0004264D961416C11F00B0FDFD05DF8044B41
:1004C0001AE7540502D50906E4D4D3E79405D1D53B
:1004D0000906E8D4CEE79205E5D4CBE7F8B590F865
:1004E00040300D46C16A012B00F008810123AE06A1
:1004F000044680F8403001D5900656D4EB0619D555
:10050000D70617D5638D9BB2002B40F0F98094F885
:100510004130B1F1007FDBB240F0D580282B40F0B4
:10052000D28029462046FFF7B3FE0023184684F800
:100530004030F8BD68071AD42F0701D516074AD4F2
:10054000A807F2D59307F0D5638D9BB2002B00F07E
:10055000FA80616A236811F8010B228D9862638D1D
:10056000013A6162013B22859BB26385DDE7530757
:10057000E2D5638D9BB26BB12268636A526A1A70CE
:10058000638D606A228D013B0130013A9BB260624B
:1005900022856385638D9BB2002BC6D111F5803F08
:1005A000C3D02046FFF722FEBFE72368202118684A
:1005B000E66A94F84120D961213A092A1ED8DFE879
:1005C00012F0C70015001D001D001D001D001D00BC
:1005D000F000C700150094F84130226803F02803AA
:1005E000282B00F0C5800823D3619EE794F84120B2
:1005F0001A6822F0FC021A60222222635A68894992
:1006000042F400425A605A680A405A609A69910757
:1006100001D500229A629A69D20703D49A6942F0FE
:1006200001029A6147047BD51A6822F480421A605D
:10063000A26B1AB111684A6892B262856A070BD53B
:100640005A6A25F00405636A1A70636A01336362AB
:10065000238D002B40F08580638D9BB21BB1636CB2
:1006600043F004036364EB061AD5C70618D5638DFF
:100670009BB2002B40F0AA8094F84130282B03D184
:10068000B6F1007F00F0C98094F8413016F5803F44
:100690002268DBB202D0292B00F0AD801023D36199
:1006A000002384F84230666C6363002E40F084803F
:1006B000E36A5D4DAB423DD194F84130202384F88C
:1006C0004130266331E794F841202368292A4FF00E
:1006D0001002DA617FF429AF11F5803F3FF425AFB6
:1006E0009A69960701D500229A629A69D5073FF563
:1006F00058AF9A6942F001029A6152E70220F8BDB0
:1007000023681022DA61636C43F00403636431F000
:1007100080737FF40AAF616C2046FFF7EDFD04E7BC
:1007200001048BD51A6822F400421A60E26B002A99
:1007300080D183E72046FFF759FD2023E56284F846
:1007400041302663F1E631F080737FF4EEAE28E7A6
:1007500094F841201A6822F0FA021A6021222263DA
:100760004CE7013B2385638D013B9BB2638573E7B7
:10077000E1689369022990699368D56836D1C3F31B
:10078000C21383EA104313F006032FD1A16C013189
:10079000A164A16C02297FF4C8AE0821A364D161D1
:1007A000C3E694F8412094F841201A6822F0FE0232
:1007B0001A600022226321E7616C2046FFF79CFD4E
:1007C00094F84130282B7FF4B0AEAAE623681022BB
:1007D000DA61636C43F00403636436F080737FF482
:1007E0005FAF616C2046FFF787FD59E7136823F080
:1007F000B803136099E61023D3619369980701D574
:10080000002393629369D90703D4936943F00103EA
:1008100093612046FFF7EAFC42E729462046FFF7AE
:1008200037FD3DE700E800FE0000FFFF836B9A6B99
:100830000AB100211165DA6B0AB10021116593F844
:100840004120602A05D000221A63002283F840204C
:1008500070470022202183F841101A63002283F898
:1008600040207047016870B4CC072DD5914A1369B8
:10087000926A03F03803102B00F0E180182B00F08F
:10088000D9804368B3F5803F00F00581002B00F06C
:100890005A81B3F5A02F874B1A6800F0678222F4C3
:1008A00080321A601A6822F480221A60824B41F268
:1008B000883C804C1D6804E01A68521B624500F2B7
:1008C0003F8122689603F7D58A0768D4CD0631D5D3
:1008D000784A1369926A03F03803082B00F0C0804D
:1008E000182B00F0B880C369724C002B00F05F81B8
:1008F0002268714B42F0800222601D6804E01A6891
:10090000521B022A00F21C812268D205F7D56B4BDC
:10091000026A1D6841F20303B3EB154FC0F0448235
:100920006368202A23F0F8430CBF43F0804343EA76
:10093000826363600D0713D543695E4C002B00F0A2
:100940001881626F5C4B42F0010262671D6804E02F
:100950001A68521B022A00F2F380626F9207F7D5E1
:100960008C0613D58369534C002B00F0118122684B
:10097000514B42F4805222601D6804E01A68521BF9
:10098000022A00F2DD8022689204F7D5490700F1BF
:100990008880436A002B40F0BC80002059E0454A23
:1009A0001369926A13F038032BD1424AC368126864
:1009B000520701D5002B4BD03E4C226822F0190281
:1009C0001A433D4B22601D6804E01A68521B022A3C
:1009D00000F2B68022685607F7D5384B02691D68C9
:1009E00041F20303B3EB154F6368C0F0028123F4B7
:1009F0007C33402A0CBF43F4003343EA0233636084
:100A000064E7182B00F0F180C3682A4C002B00F03B
:100A1000DD80226822F019021A43274B22601D68EC
:100A200004E01A68521B022A00F28A8022685207E8
:100A3000F7D5D2E702F00302022A7FF422AF1D4B62
:100A40001B689B037FF540AF4368002B7FF43CAFEE
:100A5000012070BC704702F00302012A7FF443AF0B
:100A6000144B1B68DC0502D5C369802BF0D1134CF5
:100A700041F20303026A2468B3EB144FC0F0BF8055
:100A8000202A00F09E810B4C636823F0F84343EA70
:100A9000826363604EE7074A136843F48033136050
:100AA00004E70749044B0A6842F480720A601C6834
:100AB0000CE000BF00440258802B00240010005CB2
:100AC000004802581A68121B642A39D80A68D505EA
:100AD000F8D58268012A00F06E81002A00F04E816C
:100AE000052A9F4A116F00F0748121F001011167FE
:100AF000116F21F0040111671D6841F28834984993
:100B000003E01A68521BA2421AD80A6F9207F8D55E
:100B10003FE793490A6902F03802182A00F0D580AD
:100B20000A68022B8F4B22F080720A606FD018681F
:100B30000A6892017FF531AF1A68121A022AF7D9B2
:100B4000032070BC7047864C41F28835854B226883
:100B500022F480322260226822F4802222601E6801
:100B600003E01A68921BAA42EAD822689203F8D4DA
:100B7000AAE6626F7B4B22F0010262671D6803E008
:100B80001A68521B022ADBD8626F9607F8D4E7E690
:100B90002268744B22F4805222601D6803E01A68B8
:100BA000521B022ACCD822689604F8D4EEE62268BA
:100BB0006C4B22F0800222601D6803E01A68521B11
:100BC000022ABDD82268D605F8D4B3E62268654B60
:100BD00022F0010222601D6803E01A68521B022AFB
:100BE000AED822685607F8D470E694077FF40CAFAD
:100BF000DBE623F0FE4343EA0263636066E6584C9B
:100C0000E36823F07C5343EA0263E36092E61C68E6
:100C100003E01A68121B022A92D80A689501F8D4D8
:100C20008C6A514A2240846A2243C46A42EA04120E
:100C30008A62D0E90D24013A013C5202240492B2A6
:100C400004F4FE042243046B013CC4F30804224371
:100C5000C46B013C240604F0FE4422430A63CA6AC2
:100C600022F00102CA624A6B846C6FF3CF0242EA3F
:100C7000C4024A63CA6A046C22F00C022243384C54
:100C8000CA62CA6A406C22F002020243CA62CA6A9D
:100C900042F48032CA62CA6A42F40032CA62CA6A44
:100CA00042F48022CA62CA6A42F00102CA620A6839
:100CB00042F080720A601968226890013FF56DAEBB
:100CC0001A68521A022AF7D93AE7012B8A6A0D6B81
:100CD0003FF4BEAE02F00303846AA3427FF4B8AED1
:100CE000C2F30512C36A9A427FF4B2AE036BC5F336
:100CF0000802013B9A427FF4ABAE436BC5F3462238
:100D0000013B9A427FF4A4AE836BC5F30642013BDC
:100D10009A427FF49DAEC36BC5F30665013B9D42CD
:100D20007FF496AE4B6B816CC3F3CC0399423FF4D6
:100D300034AE0B480B4BC26A22F00102C2621A6841
:100D400018688242FCD0064A536B6FF3CF0343EA24
:100D5000C1035363D36A43F00103D3621DE600BFAE
:100D600000440258802B00240CFCFFFF42F4802238
:100D70001A601A6842F480321A6097E5194941F204
:100D800088350A6F22F001020A670A6F22F0040216
:100D90000A671C6804E01A68121BAA423FF6D0AE2C
:100DA0000A6F9607F7D4F4E5E36823F07C5343EA2F
:100DB0000263E360BEE50B490A6F42F001020A6775
:100DC0009AE6084A536823F0F84343F0804353609F
:100DD000B0E541F004011167116F41F001011167A5
:100DE0008AE600BF00440258334B30B4996A9C6ACB
:100DF000DD6A14F47C7F5A6BC4F3051036D0C2F35D
:100E0000CC0205F0010501F0030107EE900A05FB95
:100E100002F20129B8EEE77A06EE902AFAEEE96AC4
:100E200002D0022942D019B3DFED247A87EE876A17
:100E30001B6BC3F3080307EE903AF7EE005AF8EE87
:100E4000E77A77EEA67A77EEA57A67EE867A1A4B7E
:100E50001B6BC3F34623013307EE103AF8EEC76A63
:100E600087EEA67AFCEEC77A17EE900A30BC704780
:100E70001A6892061DD51968F7EE005A104A1B6BC6
:100E8000C1F3C101C3F30803CA4007EE903A06EE6E
:100E9000102AF8EEE77AB8EEC66A77EEA66AC6EED2
:100EA000077A36EEA57A67EE877AD0E7DFED057A26
:100EB000BCE7DFED057AB9E7004402580024744A24
:100EC0000090D0030024F44A0024744C836A1A076B
:100ED00010B406D50168846B4A6822F400422243AC
:100EE0004A60DC0706D50168C46A4A6822F4003209
:100EF00022434A60990706D50168046B4A6822F4C8
:100F0000803222434A605A0706D50168446B4A681A
:100F100022F4802222434A60DC0606D50168C46BB5
:100F20008A6822F4805222438A60990606D50168B5
:100F3000046C8A6822F4005222438A605A060AD559
:100F40000168446C4A68B4F5801F22F4801242EABA
:100F500004024A600BD01B0606D50268C16C5368B8
:100F600023F400230B4353605DF8044B70474A6839
:100F7000846C22F4C00222434A60ECE70022836BB7
:100F8000A3F85E20704700BF82B00023019302E007
:100F90000369002B09DB019B01330193019BB3F132
:100FA000706FF5D9032002B070478901002341F02A
:100FB00020010193016103E0036913F0200307D0CE
:100FC000019B01330193019BB3F1706FF4D9E9E701
:100FD000184602B0704700BF82B00023019302E0C0
:100FE0000369002B09DB019B01330193019BB3F1E2
:100FF000706FF5D9032002B0704700230193036995
:1010000043F00103036103E0036913F0010307D018
:10101000019B01330193019BB3F1706FF4D9E9E7B0
:101020001846E8E7124B984219D0A3F57843984246
:1010300017D003F58063984215D003F578439842A2
:1010400013D00C4B984209D1052303EB43030A4A02
:1010500002EBC302938A01339BB293827047002351
:10106000F3E70123F1E70223EFE70323EDE700BFF6
:101070000030014000140058000000240369426859
:101080001F2B70B430D9A3F1200520215468A9404A
:10109000214227D08169087C022835D048681F2B5F
:1010A000C9681B4D4E680169C1F30324194951F801
:1010B000244015F804C0056856F80C4024F00104DB
:1010C00046F80C40407901EB4001088CE96800F4D7
:1010D000F05021EA0001E96010D9A3F1200120239A
:1010E0008B40D36070BC7047202114689940214226
:1010F000F8D08169087C0228D0D105E0202101FACE
:1011000003F370BC9360704700200874C6E700BF0B
:101110003CA10B0880A00B08D0E907239A423CBFF2
:10112000C1685218D01A7047D0E9092300699A4261
:1011300038BF12180138D31AC01A7047D0E9090213
:10114000101AB0FA80F04009704700BF016A0346E8
:1011500040694A1C405CD9688A4228BF00221A6252
:10116000704700BF436A826910B4D154436A416B2F
:10117000046901330A68A34228BF00235DF8044BC9
:1011800042F0800243620A60704700BF436BD86937
:1011900010F0100002D0102201201A62704700BF28
:1011A000024B01F0010183F8901070470000002409
:1011B000704700BF704700BF704700BF01207047F5
:1011C000034B58689B68C01AC0F30B00704700BF00
:1011D000802B0024074B93F8A822012A01D100207C
:1011E000704793F8A832032BF9D1034B93F8900082
:1011F000C0B27047802B002400000024012380F837
:1012000049307047EFF31182702383F31288084945
:10121000D2B2D1E9BA3182F31188581E8B42A0EBC9
:1012200001008CBF0023012300EB0330704700BF97
:10123000802B002470B5D0F8D442D0F8C86200EBFF
:10124000840EDEF8C05245B301F00F040A4604EBE9
:10125000840C00EB8C0CDCF818306BB9DEF8C4326F
:1012600000211B69C5F8141223B105F50471D5F8E6
:1012700008029847002070BD04EBC40406EB840606
:10128000F469B3FBF4F604FB1633002BE6D11A46DF
:10129000CCF8183071F068FDECE7032070BD00BF9A
:1012A000D0F8D42200EB820210B5D2F8C042ACB123
:1012B00001F00F03D0F8C802D2F8C42204F503717C
:1012C00003EBC303D26800EB8303D4F80402D3F822
:1012D0006832C4F80C329047002010BD032010BDC6
:1012E000D0F8D43200EB830010B5D0F8C04284B1FE
:1012F000D0F8C4325BB194F80002FF2807D09B6895
:10130000214694F801229847FF2384F800320020F8
:1013100010BD032010BD00BF30B52C4C864694F89C
:101320009430B4F896509D4242D9184694341946E8
:101330001A4602E0954246D921780C440A44617865
:1013400092B20529F6D1A1788229F3D19C461A469A
:101350001F4903E0AA4234D291F800C061446244BC
:1013600091F801C092B2BCF1050FF3D191F802C01F
:10137000BCF1010FEED1164A02E0A8421DD213784B
:101380001A44034492F801C098B2BCF1050FF4D19D
:101390009378812BF1D10CB11023A37119B10020E6
:1013A000022308714B711AB100210223117153718C
:1013B00043230748AEF8003030BD0022002CEBD1AB
:1013C000ECE70021D7E70024C0E700BF00000024BD
:1013D0009400002430B52C4C864694F89430B4F830
:1013E00096509D4242D91846943419461A4602E056
:1013F000954246D921780C440A44617892B2052975
:10140000F6D1A1788229F3D19C461A461F4903E000
:10141000AA4234D291F800C06144624491F801C0FC
:1014200092B2BCF1050FF3D191F802C0BCF1010FEB
:10143000EED1164A02E0A8421DD213781A440344A2
:1014400092F801C098B2BCF1050FF4D19378812BCA
:10145000F1D10CB11023A37119B1002040234871C0
:101460000B711AB1002140235171137143230748B6
:10147000AEF8003030BD0022002CEBD1ECE70021AB
:10148000D7E70024C0E700BF000000249400002438
:10149000A0E700BF03460A2201481A80704700BF38
:1014A000D8000024122301480B807047E400002478
:1014B000042301480B807047F80000241D48D0F831
:1014C0000038D0F8082830B59B184FF01A040C806B
:1014D00001D1194830BD184A0024D0F8040802F19F
:1014E000100511464FEA137EB3F1204FCC7001F185
:1014F00002010EF1370C38BF0EF1300C8D424FEA6D
:10150000031381F800C0EDD102F108050024010F9A
:10151000B0F1204FD47402F1020201F1370338BF59
:1015200001F1300395424FEA00101374EFD10248E5
:1015300030BD00BF00E0F11FFC0000240020704718
:10154000212808B528D0222818D0202814D199B1F4
:10155000072A11D1184A0868184BB1F804C0D2F80C
:10156000F0228979C3F81801A3F81CC183F81E1171
:1015700012B1014600209047002008BD0029FBD091
:10158000022AF9D10C4AD2F8F432002BF4D009889F
:10159000D2F8F8029847EFE70029EDD0072AEBD1FF
:1015A000064B0020D3F818210A60B3F81C218A806A
:1015B00093F81E318B7108BD802B0024000000249D
:1015C0002DE9F047046982B0C3681C4046D08146CB
:1015D00088464FF0004501F1500701F13806B4FA92
:1015E00084F325FA03F21B3BD2431440C9F81020C0
:1015F000B8F1000F5FD0042B2ED8DFE803F052487B
:101600003D320300D8F81030D9F82CA033B19B68D4
:1016100023B11FFA8AF108F108009847D8F828305A
:1016200033B19B6823B11FFA8AF108F12000984773
:10163000D8F8403033B19B6823B11FFA8AF108F122
:1016400038009847D8F8583033B19B6823B11FFA57
:101650008AF108F150009847002CC0D102B0BDE8D3
:10166000F087D8F8103008F10800D9F834105B681A
:101670009847002CB3D1F1E7D8F8283008F12000C2
:10168000D9F838105B689847002CA8D1E6E7D8F85D
:1016900040303046D9F83C105B689847002C9ED10A
:1016A000DCE7D8F858303846D9F840105B689847DE
:1016B000002C94D1D2E7042B07D8DFE803F01903FC
:1016C000140F0A00D9F83C300193019B002C86D1FD
:1016D000C4E7D9F82C300193019BF7E7D9F83430EF
:1016E0000193019BF2E7D9F838300193019BEDE7B4
:1016F000D9F840300193019BE8E700BF174A10B5C5
:101700005368906891681B1AC3F30B03002BF7D042
:10171000B1F5805F0AD04B1C1148C3F30B03445C46
:10172000936092F8FC324BB9204610BD01230C495E
:10173000936092F8FC320C78002BF5D093685168D6
:1017400003F6FF735B1AC3F30B03802BECD9002362
:1017500082F8FC326AF0CEFF204610BD802B0024B8
:1017600058460024F8B5114D95F8A832012B00D148
:10177000F8BD95F8A832032BFAD10D4B93F89030B1
:10178000002BF5D00F461446D5F8006308E005F0AD
:1017900051FCD5F80033241A07449B1B322BE7D8A1
:1017A000002C21463846F2DCF8BD00BF802B002417
:1017B00000000024F8B590F848305D1C0344EDB2F9
:1017C00080F8485083F8341090F8493053B1132D05
:1017D00007D9002380F84830104F97F8A832012B22
:1017E00005D1F8BD80F84830002DF5D1F8BD97F847
:1017F000A832032BF5D1D7F8006300F13404294651
:10180000204605F017FCD7F800332D1A04449B1B23
:10181000322BE6D8002DF2D1F8BD00BF802B00247A
:10182000F8B5002390F84850A0F8483005B9F8BD45
:101830000D4F97F8A832012BF9D097F8A832032B57
:10184000F5D1D7F8006300F134042946204605F0AD
:10185000F1FBD7F800332D1A04449B1B322BE6D83A
:10186000002DF2D1F8BD00BF802B00242DE9F041FE
:10187000012104464FF4077078F086F905460028E8
:101880006ED0D4F8D46204EB8606C6F8C002237C7E
:10189000D4F8C872C4F8BC02002B40D00223402206
:1018A0008121384672F082FB012102234022384612
:1018B000218772F07BFB4FF0010838460323082292
:1018C0008221A4F8788172F071FB294B0027E36430
:1018D000D6F8C432C5F804721B689847D5F80402DC
:1018E000C5F81472C5F8187200283ED0227CD4F8CE
:1018F000C83222BBC3F88C224FF400749A7903F5E6
:101900001E71C3F88402012AA3F87882C3F88842C2
:1019100023D0186871F018F90020BDE8F08138462E
:1019200002234FF40072812172F040FB0121022357
:101930004FF400723846218772F038FBBBE79A7982
:10194000402403F51E71C3F88C72012AC3F8840287
:10195000A3F87882C3F88842DBD1C3F89402D8E7B1
:10196000D4F8D432B03344F823000220BDE8F0812B
:1019700001001000F8B5D0F8C85240F20112044638
:1019800095F894342A87012B3ED001260027286839
:101990003246314685F8946471F066FA27873A46F4
:1019A00031462868A5F8786285F8946471F05CFA8D
:1019B0004FF48173A4F8787132460221286885F8C3
:1019C0009464A5F85C3071F04FFA85F89474D4F8FB
:1019D000D432002504EB8303E564D3F8C0228AB136
:1019E000D3F8C4325B689847D4F8D432B03354F893
:1019F000230077F0CDFFD4F8D432B03344F823502D
:101A0000C4F8BC520020F8BD00224FF48171028757
:101A1000A5F87832A0F87821A5F85C10D7E700BFC8
:101A2000D0F8D43200EB8303F0B5002683B0D3F8AE
:101A3000C0728DF80560ADF806605FB191F800C026
:101A400004460D461CF060022FD0202A05D0204607
:101A500071F040F8032003B0F0BDCA884878002A2E
:101A600042D01CF0800F00F08380D3F8C432394696
:101A70009B689847EA8802234FF48071072AC4F8CC
:101A8000943228BF0722D4F8C832C4E906225A6229
:101A90009A79998203F11401012A1F629E6200D192
:101AA0001F63186871F050F822E04B780B2BCED8EA
:101AB00001A252F823F000BFF51A0408F11A040835
:101AC0004F1A04084F1A04084F1A04084F1A040842
:101AD0004F1A04084F1A04084F1A04084F1A040832
:101AE000351B04082B1B0408D3F8C4329B689847A5
:101AF0000020B0E790F89C32032BA8D10222D0F846
:101B0000C8320020C4F8942203F11401C4E906226B
:101B10000DF106049862C3E908424FF480729A827C
:101B20009A79012ABDD11C63BBE790F89C32032B44
:101B3000DED08CE790F89C32032B88D10122022161
:101B4000D0F8C832C0F8941203F11401C0E906229B
:101B50000DF10500C3E908024FF4807200209A825B
:101B60009A799862012A9CD10DF10500186398E7D3
:101B7000402A4FF0030387F8000228BF402287F86D
:101B80000122C4F89432D4F8C832C4F85821C4F8F9
:101B90005C2103F51571C3F864229A79C3F8607269
:101BA000012AC3F86862A3F8546208BFC3F87072D0
:101BB00077E700BF08B520B904486AF0C1FA0448C5
:101BC00008BD04486AF0BCFA014808BD48470C0843
:101BD000842E00246C470C08024808B56AF0B0FA5D
:101BE000014808BD90470C08842E0024024808B51F
:101BF0006AF0A6FA014808BD98470C08842E002414
:101C0000024808B56AF09CFA014808BDA4470C08D0
:101C1000842E002470B5134D134AD5F82031A2FB51
:101C200003239B09013BB3F1807F01D3012070BDE9
:101C30004FF0E0220D4900240F2853614FF0F003CC
:101C4000064681F823304FF0070394611361EDD805
:101C500001464FF0FF306AF067FC2046C5F824616A
:101C600070BD00BF00000024D34D621000ED00E005
:101C70003749024603688B4233D01831591AB1FAFA
:101C800081F1490969BB3348834240D0183083420F
:101C900040D01830834236D0183083423DD01830BF
:101CA000834240D0183083422CD000F556708342D6
:101CB00037D029498B4233D018318B4236D0183176
:101CC0008B4236D018318B4236D018318B4236D009
:101CD00018318B4236D018318B4236D023F0FF00BA
:101CE00013E0DBB21D491E48103B10B41D4CA4FB91
:101CF00003435DF8044B01EB131393F82810C2E97A
:101D00001601704716211848D1659065704710215B
:101D10001348F9E716211248F6E706211248F3E7BF
:101D200006211248F0E710210F48EDE710210F4877
:101D3000EAE716210D48E7E700210D48E4E7062110
:101D40000B48E1E710210A48DEE716210848DBE7E7
:101D500010000240400002402804024080A00B080E
:101D600000000240ABAAAAAA0400024000040240FC
:101D700004040240F0B50C46114602688646936999
:101D800013F0100C72D04FF0000C10233848654649
:101D9000D36193699E065FD445B903685B1AA34279
:101DA0003DD893699F06F8D52023D3614CF0040CED
:101DB00001209369D90552D54FF480715F054CF02D
:101DC000010CD16104D54FF480614CF0080CD16155
:101DD0009D0504D54FF400734CF0020CD361936958
:101DE000990701D5002393629369DB0703D49369B4
:101DF00043F001039361536820241E4901200B40E6
:101E000000215360DEF844308EF8401043EA0C03A2
:101E1000CEF844308EF841408EF84210F0BD57683D
:101E20009EF842309669DBB2360408D57E0406D4AB
:101E3000202B04D0536843F48043536001689369B6
:101E40009F06A6D403685B1A192BF8D993694FF043
:101E5000200C01259E069FD5002DA5D0A6E75E0586
:101E6000B1D49C05B6D40028B9D1F0BD6046A0E736
:101E7000802B002400E800FE2DE9F04707689A4611
:101E8000089EBB6931EA03030CBF01230023934280
:101E900020D180460C461546DFF85C90324651460C
:101EA0004046FFF767FF20BBD9F80030A3EB060CD4
:101EB000D44507D9BB6934EA03030CBF01230023CF
:101EC000AB420AD0BB6934EA03030CBF01230023F1
:101ED000AB42E3D00020BDE8F087D8F844302022A0
:101EE00088F840001343C8F8443088F8412088F847
:101EF00042000120BDE8F087802B00240C4A1369C2
:101F000003F03803102B0DD0182B09D063B91368D8
:101F10009B060BD513680748C3F3C103D84070472D
:101F2000FEF762BF04487047044870470148704795
:101F3000004402580090D00300127A0000093D00CE
:101F4000194A136903F03803102B10B525D0182B4C
:101F500009D023BB13689B0623D513681348C3F32A
:101F6000C103D84001E0FEF73FFF0F49104A8B69DB
:101F70008969C3F303230F4C01F00F0113440A4492
:101F800093F8301092F8303001F01F0203F01F0375
:101F9000D040C4F82001D84010BD0748E5E7074805
:101FA000E3E70248E1E700BF004402580090D00395
:101FB00080A00B080000002400127A0000093D00F8
:101FC000474A70B4946A956AD66A15F47C3FC5F3A3
:101FD0000533D16B5BD0C1F3CC01C6F3001604F01E
:101FE000030407EE903A06FB01F1012CB8EEE77A04
:101FF00006EE901AFAEEE96A03D0022C6AD0002CA1
:102000004AD0DFED387A87EE876A936BC3F3080313
:1020100007EE903AF7EE005AF8EEE77A77EEA67AF6
:1020200077EEA57A67EE867A2D4AB7EE006A936B53
:10203000C3F3462307EE103AB8EEC77A70BC37EE0A
:10204000067AC7EE876AFCEEE66AC0ED006A936B1B
:10205000C3F3064307EE103AB8EEC77A37EE067AB6
:10206000C7EE876AFCEEE66AC0ED016A936BC3F3C4
:10207000066306EE903AF8EEE66A76EE866A87EE3A
:10208000A67AFCEEC77A17EE903A8360704770BC70
:10209000C0E900338360704713689B061DD5146840
:1020A000F7EE005A936B1049C4F3C102C3F308035F
:1020B000D14007EE903A06EE101AF8EEE77AB8EE45
:1020C000C66A77EEA66AC6EE077A36EEA57A67EE9E
:1020D000877AA9E7DFED057A95E7DFED057A92E7E4
:1020E000004402580024744A0090D0030024F44AAB
:1020F0000024744C474A70B4946A956AD66A15F005
:102100007C7FC5F30553516C5BD0C1F3CC01C6F3A2
:10211000002604F0030407EE903A06FB01F1012CBF
:10212000B8EEE77A06EE901AFAEEE96A03D0022CCE
:102130006AD0002C4AD0DFED387A87EE876A136CBC
:10214000C3F3080307EE903AF7EE005AF8EEE77A89
:1021500077EEA67A77EEA57A67EE867A2D4AB7EE05
:10216000006A136CC3F3462307EE103AB8EEC77A41
:1021700070BC37EE067AC7EE876AFCEEE66AC0ED01
:10218000006A136CC3F3064307EE103AB8EEC77A41
:1021900037EE067AC7EE876AFCEEE66AC0ED016AA2
:1021A000136CC3F3066306EE903AF8EEE66A76EE39
:1021B000866A87EEA67AFCEEC77A17EE903A8360BD
:1021C000704770BCC0E900338360704713689B069A
:1021D0001DD51468F7EE005A136C1049C4F3C10200
:1021E000C3F30803D14007EE903A06EE101AF8EE5A
:1021F000E77AB8EEC66A77EEA66AC6EE077A36EEDA
:10220000A57A67EE877AA9E7DFED057A95E7DFED36
:10221000057A92E7004402580024744A0090D003E3
:102220000024F44A0024744C0269836870B50446A3
:1022300005681343C069626986B029681343AC4AD4
:1022400003430A40616A1343E2682B606B6823F41E
:1022500040531343A2696B60A64B9D4200F0668118
:10226000236AAE681A43A44B33401A43AA60EB6A50
:1022700023F00F030B43EB62A04B9D4228D0A04BF1
:102280009D421AD09F4B9D4217D09F4B9D4214D028
:102290009E4B9D4211D09E4B9D4219D09D4B9D421D
:1022A0000BD09D4B9D4208D0012000234FF001121E
:1022B0006367A266A36706B070BD984B5B6D03F0C1
:1022C0000703052BF0D8DFE803F09F7F8A925F7940
:1022D000924B5B6D03F03803282BE5D801A252F82E
:1022E00023F000BF91240408A9220408A9220408AD
:1022F000A9220408A9220408A9220408A922040882
:10230000A9220408C9230408A9220408A922040850
:10231000A9220408A9220408A9220408A922040861
:10232000A9220408DF230408A9220408A92204081A
:10233000A9220408A9220408A9220408A922040841
:10234000A9220408EF230408A9220408A9220408EA
:10235000A9220408A9220408A9220408A922040821
:10236000A922040889230408A9220408A922040830
:10237000A9220408A9220408A9220408A922040801
:10238000A9220408BD230408B0F5004F644853D0C7
:10239000644B626803EB4103B3F84030B0FBF3F0E9
:1023A00000EB52004FF6EF73B0FBF2F0A0F1100219
:1023B0009A423FF679AFE860002076E7B0F5004F2B
:1023C0003AD04FF40040E3E7B0F5004F2DD003A81A
:1023D000FFF7F6FD04980028EED0616AD8E7B0F563
:1023E000004F71D06846FFF785FE0198F3E7B0F51E
:1023F000004F5ED0494B1A68920639D51B684A488F
:10240000C3F3C103D840C3E7B0F5004F32D0FFF7A4
:1024100097FD424A434BD269C2F30212134493F828
:10242000303003F01F03D840D5E703A8FFF7C8FDFD
:1024300004980028C0D0616A3A4B626803EB4103FC
:102440004FF6EF71B3F84030B0FBF3F0530803EBF5
:102450004003B3FBF2F3A3F110028A423FF624AF2C
:1024600023F00F02C3F3420392B21343EB60A3E7DE
:102470002D488DE7FFF764FD284A2A4BD269C2F345
:102480000212134493F8303003F01F03D840D0E712
:10249000B0F5004F1DD0FFF753FD204A214BD26904
:1024A000C2F30222134493F8303003F01F03D840E4
:1024B00091E71A4B1A68900640F1A5801B681A48EC
:1024C000C3F3C103D840B7E76846FFF713FE01988E
:1024D000AFE7FFF735FD114A124BD269C2F3022272
:1024E000134493F8303003F01F03D840A1E700BF36
:1024F000F369FFCF000C0058FFF4FF1100100140FA
:102500000044004000480040004C004000500040A3
:102510000014014000780040007C00400044025854
:1025200000093D0080A00B080090D003A868374B3D
:1025300003401343364AAB60EB6A23F00F030B43AF
:10254000EB62936D03F00703052B3FF6ADAEDFE8BA
:1025500003F0413C3303524F2D4B1A6895064CD47F
:102560002C482D4B656803EB410305EB4501B3F89F
:102570004020B0FBF2F399423FF696AEB3EB053F35
:102580003FF692AE0023194672F0B0FD2A460902CA
:10259000030241EA1061680818184FF0000341F186
:1025A000000172F0A3FD1D4BA0F540729A423FF668
:1025B0007BAE1B4BD860FFE66846FFF79BFD01989A
:1025C00000283FF4F9AE616ACBE703A8FFF7F8FCF7
:1025D0000498F5E7FFF7B4FC0D4A0F4B126AC2F3FB
:1025E0000212134493F8303003F01F03D840E7E79A
:1025F0004FF40040B5E70B48B3E71B680548C3F349
:10260000C103D840ADE7034816E700BFFFF4FF1150
:10261000004402580090D00380A00B08FFFC0F007C
:10262000000C005800093D00344A136830B423F010
:102630008063334C1360256803E023685B1B022B27
:1026400054D813681B01F8D4936A056823F47C33CB
:1026500043EA053393628368C568013B013D5B0231
:102660002D049BB205F4FE052B434568013DC5F3DF
:1026700008052B430569013D2D0605F0FE452B435A
:102680009363D36A456923F0C0032B43D362D36AB3
:10269000856923F020032B43D362D36A23F0100310
:1026A000D362D36BC0696FF3CF0343EAC003D36334
:1026B000D36A43F01003D362D36AD1B101290CBFAE
:1026C00043F4801343F40013D3620C4A136843F0BD
:1026D00080631360216803E023685B1A022B05D82E
:1026E00013681B01F8D5002030BC7047032030BCB4
:1026F000704743F40023D362E7E700BF0044025869
:10270000802B0024344A136830B423F08053334CB8
:102710001360256803E023685B1B022B54D8136801
:102720009B00F8D4936A056823F07C7343EA055351
:1027300093628368C568013B013D5B022D049BB237
:1027400005F4FE052B434568013DC5F308052B4301
:102750000569013D2D0605F0FE452B431364D36A40
:10276000456923F440632B43D362D36A856923F41C
:1027700000732B43D362D36A23F48073D362536C08
:10278000C0696FF3CF0343EAC0035364D36A43F4D1
:102790008073D362D36AD1B101290CBF43F4000323
:1027A00043F08073D3620C4A136843F08053136084
:1027B000216803E023685B1A022B05D813689B008D
:1027C000F8D5002030BC7047032030BC704743F47C
:1027D0008003D362E7E700BF00440258802B002447
:1027E000F0B5354AB0F1804F344DA0EB02020368DA
:1027F000A0EB050E4C69B2FA82F28F68BEFA8EFE2B
:102800000E684FEA52124FEA5E1E1FD0F2B9DFF88F
:10281000B8C0604537D00CF5806C604533D00CF5FE
:10282000806C604512D0BEF1000F0FD1244D254AB7
:10283000904218BFA8422AD002F58062904226D06A
:1028400023F08003C76286621C4314E04D6823F0C6
:102850007003D1F80CC02B43C762866223F4407327
:1028600043EA0C0323F080031C4312B9BEF1000FAE
:1028700016D00B6903630368012243F0040303606D
:1028800042610460F0BD23F070034A681343CA68D4
:1028900023F44073C7621343866223F080031C4312
:1028A000074A084B984218BF9042E2D003F5806374
:1028B0009842DED0DFE700BF000001400004014085
:1028C0000040014000440140000400405A4B0021F8
:1028D0005A4AD3F820315A48A2FB032330B5DB0C07
:1028E000584C83B0013BC4F81414C4F80C1442F2E1
:1028F0000F7194F84124C4F80404C4F81014C4F807
:102900000834002A00F0938002254F494C4884F88F
:102910004154FFF765FF01234C4A0621372084F814
:102920004C3484F8423484F8433484F8443484F8D2
:10293000453484F8463484F8473484F8483484F8BD
:10294000493484F84A3484F84B3484F84134D2F85A
:10295000E83043F02003C2F8E830D2F8E83003F062
:1029600020030193019B69F0DFFD394B4FF4000216
:102970005A6094F84134012B3BD1D4F80424354BF0
:102980003548B2F1804F18BF9A4284F84154D1685B
:102990000CBF0123002341F00101824208BF43F034
:1029A000010300F58060D160824208BF43F001035B
:1029B00000F580602949824208BF43F0010300F519
:1029C0007840824208BF43F001038A4208BF43F0C7
:1029D000010313B9224B9A4207D19168214B0B4056
:1029E000062B06D0B3F5803F03D0136843F00103F4
:1029F0001360D4F8E03204EB8303D3F8CC3243B154
:102A000019480021194AC3F80802C3F81012C3F884
:102A1000042200256560C4F8F452A560C4F8F052A1
:102A200084F8FC5269F066FE284603B030BD02F01F
:102A3000FF0084F8400467E70000002483DE1B43A6
:102A400000140040802B0024882F002400440258EA
:102A500000E100E0000001400004004000180040D8
:102A6000004001400700010058360024D02F002408
:102A7000026810B452E8003F23F4907342E800313A
:102A80000029F7D1144C02F1080353E8003F23401A
:102A900002F1080C4CE800310029F4D1C36E012B7F
:102AA00008D0002320225DF8044BC0F88C20436737
:102AB000C366704752E8003F23F0100342E800313C
:102AC0000029EED052E8003F23F0100342E8003125
:102AD0000029EFD1E5E700BFFEFFFFEF436BDA69A6
:102AE000F0B5970683B0044642D5586AE36AC0B28F
:102AF000002B00F09580216B9847636B1A681D4688
:102B000022F480721A609A6822F001029A609A692F
:102B100042F008029A61DA69D6072DD4DA69900783
:102B200001D502221A62DA69510701D504221A621C
:102B3000DA69120701D508221A62DA69170612D576
:102B4000D4F8BC20212A0ED0D4E909128A4273D0CD
:102B5000A169895C0132C9B299622169B2FBF1F0C5
:102B600001FB1022A262DA69560608D403B0F0BD58
:102B7000DA691D46D607D1D501221A62CEE7DA6995
:102B800040F60F0C1E6804F1340012EA0C0F99682D
:102B900036D0B24F0F4040F0BB80DFF8CCC216EA0F
:102BA0000C0F40F06381D4F8A050012D4CD0D50219
:102BB00002D54F0200F16781150606D501F4000128
:102BC00006F080050D4340F043815106CED57206D4
:102BD000CCD553E8002F22F0400243E8002141B158
:102BE000626B52E8003F23F0400342E800310029C5
:102BF000F7D120220023C4F8BC20C4F8AC30B5E7DC
:102C00009506D0D506F0200501F080573D43CAD087
:102C1000D4F8A830002BA9D003B0BDE8F040184785
:102C2000E3696269D054E369E2680133B3FBF2F10E
:102C300002FB1133E36160E70022A4F88A201A68DE
:102C400022F080021A608EE7D706B0D5F506AED521
:102C50001022B4F890501A629A68570640F11D810C
:102C6000D4F8B40001684A6892B2002A00F050819A
:102C7000AA4280F04D81C169A4F89220B1F5807F0D
:102C800040D053E8002F22F4807243E8002141B184
:102C9000626B52E8001F21F4807142E80015002D9C
:102CA000F7D103F1080252E8002F22F0010203F1EC
:102CB000080545E800210029F3D103F1080252E894
:102CC000002F22F0400203F1080545E80021002909
:102CD000F3D12022C4F8C020C4F8A01053E8002F7C
:102CE00022F0100243E80026002EF7D15C490D685F
:102CF00040B190F83530022B00F01381802380F82A
:102D0000346043650223C4F8A430B4F892302DE750
:102D100012F0010F0CD016F4807F09D04FF0010C97
:102D2000C3F820C0D4F8C4C04CF0010CC4F8C4C02F
:102D300012F0020F7BD112F0040F0CD011F0010F32
:102D400009D04FF0040CC3F820C0D4F8C4C04CF034
:102D5000020CC4F8C4C012F0080F0CD006F0200C0E
:102D60005CEA070C07D008271F62D4F8C47047F04C
:102D70000807C4F8C47017050AD5770108D54FF4C1
:102D800000671F62D4F8C43043F02003C4F8C43095
:102D9000D4F8C430002B3FF4E9AE92060CD506F00F
:102DA000200601F080510E4306D0D4F8A8301BB1A4
:102DB00001909847656B0198D4F8C420AB6802F085
:102DC000280203F04003134361D0FFF751FEAB68C4
:102DD0005B067FF5CBAE05F1080353E8003F23F017
:102DE000400305F1080141E8003262B1626B02F173
:102DF000080353E8003F23F0400302F1080040E8D5
:102E000000310029F3D1D4F8B40000283FF4AEAE6D
:102E100090F83520134B022A03653BD1FDF726F9C4
:102E200000283FF4A3AED4F8B400036DF4E611F02B
:102E3000010F90D04FF0020C12F0040FC3F820C025
:102E4000D4F8C4C04CF0040CC4F8C4C083D078E7F4
:102E5000D4F8AC30002B7FF4DFAE87E60100001021
:102E6000802B00247D0F04082001000412F0010FC4
:102E70003FF471AF16F4807F7FF450AF12F0020F71
:102E80007FF469AF57E74FF480121A626EE6C4F818
:102E9000C4306BE680224265BEE6B4F89220B4F8F6
:102EA000921092B289B2AA423FF460AE00293FF478
:102EB0005DAE53E8002F22F4907243E8002141B147
:102EC000626B52E8001F21F4907142E80010002864
:102ED000F7D1954803F1080252E8002F024003F1B0
:102EE000080545E800210029F4D12022C4F8A810E3
:102EF000C4F8C020C4F8A01053E8002F22F010023C
:102F000043E800210029F7D10223C4F8A4302DE6BC
:102F1000AA427FF42BAEC369B3F5807F7FF426AE5F
:102F2000F2E70368814A824E824FB34218BF934250
:102F300006F118060CBF01220022B34208BF42F07E
:102F400001021836B34208BF42F001021836B342FC
:102F500008BF42F001021836B34208BF42F0010236
:102F600006F55676B34208BF42F001021836B34266
:102F700008BF42F001021836B34208BF42F0010216
:102F80001836B34208BF42F001021836B34208BFF8
:102F900042F001021836B34208BF42F0010218366F
:102FA000B34208BF42F00102A6F59266BB4218BFC9
:102FB000B34207F592670CBF01260026BB4208BF4B
:102FC00042F0010256EA020779D0D3F800C02CF093
:102FD0001E0CC3F800C0D3F814C02CF0800CC3F84A
:102FE00014C0D0F860C076BBD0F860C0DCF80060D8
:102FF00026F48076CCF800601A6822F001021A608C
:1030000003E00A68521B052A24D81A68D607F8D4A8
:10301000D0E9165101F01F012FB33F238B40AB6065
:10302000C36ED0E91921516033B11A68016F22F4DF
:1030300080721A60436F4B600122002380F83520B4
:1030400080F834305EE6DCF8002022F48072CCF8A0
:103050000020D1E7202103220023416580F834308D
:1030600080F835204EE6344A344EB34218BF9342BE
:1030700006F114060CBF01220022B34208BF42F041
:1030800001021436B34208BF42F001021436B342C3
:1030900008BF42F001021436B34208BF42F00102F9
:1030A000012606FA01F1696025498B4208BF42F00A
:1030B0000102002AB4D1234A9342B1D0BCE71E4E8C
:1030C000DFF878C0634518BFB3420CF1140C0CBF95
:1030D00001260026634508BF46F001060CF1140CDA
:1030E000634508BF46F001060CF1140C634508BFA8
:1030F00046F001060CF1140C634508BF46F00106CA
:10310000D3F800C02CF00E0CC3F800C0DFF830C0BC
:10311000634508BF46F00106002E7FF465AF094EF7
:10312000B3423FF461AF67E7FEFFFFEF40000240AC
:103130005800024028000240085402581C5402580B
:1031400080540258945402582DE9F8430568074604
:103150000C46C5F31009B9F1000F39D18A4B4FF66F
:10316000FF72B3F88030934256D0002B54D0874A78
:1031700002EA432808F10068454534BF4FF00108D2
:103180004FF00208824B9D4206D903F500339D4261
:1031900000F2CF804FF001097E4E96F8A434012B47
:1031A00012D00123B8F1010F86F8A4344FF00003C8
:1031B000C6F8A83436D0022069F062F9002800F081
:1031C0009980002386F8A4344FF0FF30BDE8F883DF
:1031D000704E96F8A434012B4CD0012386F8A43409
:1031E00005F17843B3F5801F48D3A5F10163B3F52A
:1031F000801F3FD200230220C6F8A83469F040F9AE
:10320000002870D1644A4FF00208D2F80C3143EA2A
:103210000803C2F80C313FE0B5F1016F67D3052018
:103220000CF098FB404669F02BF90028C9D14046C4
:10323000DFF86481D8F80C3023F4E663C8F80C306A
:10324000D8F80C3043EA092343F0A403C8F80C3043
:1032500069F016F9D8F80C20504B1340C8F80C3020
:103260000028AED105F178430122B3F5801F86F81E
:10327000A42403D36FF00100BDE8F88300230120EC
:10328000C6F8A83469F0FCF868BB434A4FF001085F
:10329000D36843F00203D360BFF36F8FBFF34F8F48
:1032A00004F1200254F8043B944245F8043BF9D160
:1032B000BFF36F8FBFF34F8F404669F0E1F8B8F16D
:1032C000010F354A30D0D2F80C3123F00203C2F896
:1032D0000C31002386F8A4340028CBD13B6820337E
:1032E0003B60BDE8F883002386F8A434C2E74FF0C2
:1032F000010847E7DFF8A0800220D8F80C3123F45A
:10330000E663C8F80C31D8F80C3143EA092343F0DE
:10331000A403C8F80C3169F0B3F8D8F80C211F4B9E
:103320001340C8F80C319BE7D36823F00203D36045
:10333000CFE703F500339D4211D903F500339D42D9
:1033400010D903F500339D4206D903F500339D42A1
:103350000BD84FF005091FE74FF004091CE74FF0A9
:10336000020919E74FF0030916E703F500339D4200
:1033700006D9B5F1016FBFF452AF4FF007090BE763
:103380004FF0060908E700BF00E8F11F00FE1F002C
:10339000FFFF0108802B002400200052FBF8FFFFF4
:1033A0000148FDF75FB800BF30300024084810B472
:1033B000D0F8B034D0F8E44499691A682CB12346A7
:1033C00000F596605DF8044B18475DF8044B7047B4
:1033D000802B00240148FDF745B800BF8830002449
:1033E000084810B4D0F80835D0F83C4599691A68F7
:1033F0002CB1234600F5A1605DF8044B18475DF839
:10340000044B7047802B00240148FDF72BB800BF08
:10341000E0300024084810B4D0F86035D0F8944566
:1034200099691A682CB1234600F5AC605DF8044B2D
:1034300018475DF8044B7047802B00242DE9F04FAE
:10344000DFF8649300EB400583B0430009EB85058A
:103450000093D5F828310193002B00F0628180465B
:10346000B5F82E0168F02CFF95F82C0107F04CFB05
:10347000044695F82D0107F047FB08F101030746C4
:10348000DBB2002C00F0728140F60C12A18823728E
:10349000E2802268002800F05D81037240F60C2370
:1034A000C38091613B68BA889A6111212046092640
:1034B00003F042FE1121384603F03EFE6525002C44
:1034C00000F032812268A38811690B4200F02C8140
:1034D0001B0493610CF0E2F905468B460CF0DEF913
:1034E000401B61EB0B01052871F10001F6D314B10B
:1034F0002368A2889A610CF0D1F905468B460CF03E
:10350000CDF9401B61EB0B01052871F10001F6D3E9
:10351000013ED3D11CB1A38822681B0493610CF037
:10352000BDF905460E460CF0B9F9401B61EB0601EA
:10353000052871F10001F6D31FB1BB883A681B045E
:1035400093610CF0ABF905460E460CF0A7F9401B51
:1035500061EB0601052871F10001F6D314B123686F
:10356000A2889A610CF09AF905460E460CF096F97D
:10357000401B61EB0601052871F10001F6D317B17C
:103580003B68BA889A61009B20463E21434409EB80
:10359000830393F83341224607F094FA22463846D3
:1035A0003E2107F08FFA7A4C5823019A03FB084317
:1035B000C3F8B024774B9A4200F0C780FEF7C0FCF6
:1035C000754BDA69C2F30212744B134493F830302E
:1035D00003F01F03D840009B434409EB830393F897
:1035E0003031022B00F0BD80032B00F0B580012BA1
:1035F00014BF4FF4C8714FF4487168F0CFFD034613
:103600005822002102FB0842C2F8B814C2F8C014C4
:10361000C2F8C414C2F8CC14C2F8D0140121C2F804
:10362000B434C2F8BC1492F8F11401F0FF00002980
:1036300000F0A480582123F0706224264FF4004744
:1036400001FB08415648D1F8B03481F8F1641D6897
:1036500025F001051D601A619A6822F400429A6003
:103660009F605A6822F400625A605A681043D1F889
:10367000C82458601202D86820F40040D860DA608C
:1036800000221A60186840F0010018602020C1F87C
:10369000F42481F8F104C1F8E02481F8F22491F8CF
:1036A000F1042028C5B217D191F8F004012813D0F5
:1036B00081F8F164186820F001001860186820F49F
:1036C0008050186018681860186840F00100186091
:1036D00081F8F15481F8F024009B02210126314F3A
:1036E000434409EB830999F83251284668F01CFFDE
:1036F00005F01F036A0999F8315106FA03F3022114
:10370000284647F8223068F00FFF582303FB08448F
:1037100005F01F036D0906FA03F347F8253084F816
:10372000AC6403B0BDE8F08F013D2AD00CF0B6F8D0
:1037300083468A460CF0B2F8B0EB0B0061EB0A014D
:10374000052871F10001F5D3B9E6FEF7F9FB124B3C
:103750001A6A37E79161A8E6C82168F01FFD0346A1
:103760004EE7642168F01AFD034649E700283FF45C
:103770009CAE037240F60C23C38093E682F8F004FB
:1037800058E7002C3FF4A6AEA3882268A0E600BF4D
:10379000802B0024001C00580044025880A00B0815
:1037A0000080000200E100E0000000242DE9F04F5D
:1037B000441C85B017469DF83C202DD05824DFF8D6
:1037C000A8831E46054600FB04F408EB040393F8A7
:1037D000AC94B9F1000F1FD044444900FF2F04F509
:1037E0009664039100D0EEB9002A40F0C6805823B9
:1037F00003FB058393F8F124202A04D1B6B94FF4D2
:103800000072C3F8F424B8F8B435284601339BB2EB
:10381000A8F8B435FFF712FE4FF00009484605B08E
:10382000BDE8F08F93F8F134202BECD14FF0580A1B
:103830000AFB058A9AF8F034012BE4D00122D8F86B
:1038400000B019234FF400418AF8F0242046CDF847
:1038500000B0FEF711FB0028D5D10E9BDAF8B014AA
:10386000CAF8D4342123BA4A8AF8F1344023CAF87A
:10387000E4048AF8F234CAF8F4042046AAF8DA64B8
:103880004B681340039A1343B24A1A434A6059469D
:1038900068F0C8FD0246002840F0FB80DAF8B0343A
:1038A000802120469F620A23CDF800B0FEF7E4FA9B
:1038B000002840F0EE80BAF8DA349BB2FF2B40F2D9
:1038C0001681DAF8B014FF23A348AAF8D8344B685D
:1038D000A24A0340039803431A434A605826DDF87E
:1038E0000CA05F46039506FB058605E0B6F8DA34C2
:1038F0009BB2002B00F010813946204668F092FD03
:10390000002840F0F280D6F8D414D6F8B05411F85C
:10391000012BB6F8D834AA62C6F8D414013BB6F825
:10392000DA149BB20139A6F8D83489B2A6F8DA14B1
:10393000B6F8DA1489B2002BD8D10029D6D00246C5
:103940000A23802120460097FEF796FAFF220028DE
:1039500040F0CB80B6F8DA349BB2934240F2A080BC
:10396000D6F8B014A6F8D8244B687B4A13407B4A9B
:1039700043EA0A031A434A60B8E74FF0580A0AFBC1
:10398000058A9AF8F134202B7FF43DAF9AF8F03491
:10399000012B3FF438AF0122D8F8007019234FF4FF
:1039A00000418AF8F02420460097FEF765FA0028C7
:1039B0007FF429AF0E9BCAF8E404CAF8D43421235B
:1039C0008AF8F13410238AF8F234CAF8F404AAF819
:1039D000DA64BAF8DA349BB2FF2B00F2C780BAF887
:1039E000DA349BB2AAF8D834002B40F0F180DAF830
:1039F000B01457484B685A4A0340039803431A438C
:103A00004A605826AA4606FB0586B6F8DA343946D7
:103A10009BB2002B00F0D480204668F003FD002804
:103A200078D1D6F8D414D6F8B05411F8012BB6F8E2
:103A3000D834AA62C6F8D414013BB6F8DA149BB2A3
:103A40000139A6F8D83489B2A6F8DA14B6F8DA142F
:103A500089B2002BD9D10029D7D002460A23802170
:103A600020460097FEF708FAFF22002852D1B6F848
:103A7000DA349BB2934225D9D6F8B014A6F8D824EC
:103A80004B68354A1340039A1343344A1A434A6039
:103A9000BBE75823002203FB058383F8F024B2E63A
:103AA000B6F8DA34D6F8B0249BB22B485168A6F8A1
:103AB000D834DBB201404AEA03430B4343F00073BE
:103AC000536013E7B6F8DA34D6F8B0149BB2039A11
:103AD0002148A6F8D834DBB242EA03434A680240E0
:103AE000134343F000734B608FE7039D8BE6BAF8F6
:103AF000DA34DAF8B0149BB2039A1748AAF8D8342B
:103B0000DBB242EA03434A680240134343F00073C6
:103B10004B60E3E6554676E639462046039D68F05D
:103B200053FC00287FF46FAED6F8B03420210D4C42
:103B3000D9615A6822405A605823002286F8F1144D
:103B400003FB058386F8F20483F8F02466E600BFE1
:103B5000009800FC00200101009C00FC0000FF0117
:103B60000020000200E800FE802B0024FF234FF419
:103B70007F00FE224FF08076AAF8D834039BDDF850
:103B800038E01E4358231EF801AB03FB0583DFF822
:103B900050C0D3F8B014C1F828A0A3F8D824B3F8C3
:103BA000DA24C3F8D4E4013A92B2A3F8DA244B68D9
:103BB00003EA0C033343034343F400534B6020E711
:103BC0002046554668F000FC00287FF41CAEABE7A9
:103BD000013B4FF000769AB2501CC0B20004CDE712
:103BE000009800FC2DE9F04F441C85B099469DF8E3
:103BF0003C3000F096805825C34C064600FB05F586
:103C000004EB050B9BF8ACA4BAF1000F00F089801F
:103C10002544FF2A90464FEA410705F5966540F096
:103C20008680002B00F083809BF8F134202B6FD12D
:103C30009BF8F034012B6BD00122D4F800801923BB
:103C40004FF400418BF8F0242846CDF80080FEF7B1
:103C500013F900285CD10E9BCBF8E404CBF8D434E4
:103C600022238BF8F13410238BF8F234CBF8F404D0
:103C7000ABF8DA94BBF8DA349BB2FF2B00F2108178
:103C8000BBF8DA34DBF8B0149BB2A0484A68ABF852
:103C9000D834DBB2024047EA034313439C4A1A4339
:103CA0004A604FF0580909FB0649B9F8DA349BB26B
:103CB000002B00F08481D9F8B0349A69520700F1E2
:103CC000318142460A212846FEF754F8002840F088
:103CD000F480D9F8B0349A69910640F1F9809A6974
:103CE0009A6912F0100200F0F18010222021894D13
:103CF000DA610422C9F8F424D9615A682A405A606A
:103D000089F8F11489F8F00489F8F20422689B69B3
:103D1000B4F8B435304601339BB2A4F8B435FFF79C
:103D20008DFB4FF0000A504605B0BDE8F08F4FF014
:103D3000580B0BFB064B9BF8F134202BE8D10E9B64
:103D4000002B00F0A8809BF8F034012BE0D0236812
:103D500001224FF4004128468BF8F024039300938E
:103D60001923FEF789F80028D2D12223DBF8B014FA
:103D70000E9A8BF8F1344023CBF8D4248BF8F2342C
:103D8000CBF8F404ABF8DA94DFF880914A68CBF80A
:103D9000E404284602EA09023A4342F490324A60B7
:103DA000039968F03FFB0246002840F0348140232D
:103DB00028461946DBF8B034C3F82880039B0093EB
:103DC0000A23FEF759F8002840F02581BBF8DA34C1
:103DD0009BB2FF2B40F22681DBF8B014FF234E4A42
:103DE000ABF8D8344B6803EA09033B431A434A60F3
:103DF0004FF05808B946039F08FB064805E0B8F89D
:103E0000DA349BB2002B00F01F810A230022042128
:103E100028460097FEF730F800287FF479AFD8F8ED
:103E2000B034596AD8F8D4341970B8F8DA14D8F81C
:103E3000D4340139013389B2C8F8D434B8F8D8344D
:103E4000A8F8DA14013BB8F8DA149BB289B2A8F8E2
:103E5000D8340029D3D0002BD1D102460A238021A7
:103E600028460097FEF708F8FF2200287FF450AF9D
:103E7000B8F8DA349BB2934240F2BB80D8F8B01461
:103E8000A8F8D8244B68254A1340254A43EA090379
:103E90001A434A60B3E74FF40073CBF8F43437E7C2
:103EA000DBF8B014FF231948ABF8D8344B681A4A32
:103EB00003403B431A434A60F3E6582303FB06439F
:103EC000D3F8B0349A6922689B6921E7C9F8F424D1
:103ED0002268A2EB08020A2A7FF6EFAE9A6912F076
:103EE00004027FF4EAAE582101FB0641D1F8F40444
:103EF00081F8F024202240F02000C1F8F40481F879
:103F0000F1249B6904E700BF802B0024009800FC8B
:103F10000024000200E800FE0024FF01009C00FCD9
:103F20000000FF015A6AD9F8D4341A70B9F8DA34AB
:103F3000D9F8D424013B01329BB2C9F8D424A9F8A2
:103F4000DA34B9F8D834B9F8DA24013B92B29BB22A
:103F5000A9F8D834002A3FF4A8AE002B7FF4A5AE10
:103F60000A23002280212846CDF80080FDF784FF37
:103F700000287FF4CDAEB9F8DA349BB2FF2B0CD910
:103F8000D9F8B014FF233B48A9F8D8344B683A4A13
:103F900003403B431A434A6087E6B9F8DA34D9F85C
:103FA000B0149BB233484A68A9F8D834DBB2024057
:103FB00047EA0343134343F000734B6075E6414601
:103FC000284668F001FA00287FF4A2AED9F8B03490
:103FD00020212A4DD9615A682A405A6089F8F11483
:103FE00089F8F2045822002302FB064484F8F034D6
:103FF00099E6B8F8DA34D8F8B0249BB21D48516875
:10400000A8F8D834DBB2014049EA03430B4343F03C
:1040100000735360F3E65823002203FB064383F842
:10402000F02475E6BBF8DA34DBF8B0149BB24A68CA
:10403000ABF8D834DBB202EA090247EA0343134380
:104040000F4A1A434A60D3E60399284668F0BCF940
:10405000034600287FF45CAED8F8B0242020074D3A
:10406000D06151682940516088F8F10488F8F23431
:10407000B8E700BF009C00FC0000FF0100E800FE64
:10408000002400020348D0F8583113B100F5A6709F
:1040900018477047000000240348D0F8783113B166
:1040A00000F5B67018477047000000240348D0F8A8
:1040B000983113B100F5C67018477047000000240E
:1040C0000348D0F8B83113B100F5D67018477047DF
:1040D000000000240348D0F8D83113B100F5E67091
:1040E00018477047000000240348D0F8F83113B196
:1040F00000F5F67018477047000000240348D0F818
:10410000183213B100F503701847704700000024FF
:104110000348D0F8383213B100F50B7018477047D8
:10412000000000240348D0F8583213B100F5137092
:1041300018477047000000240348D0F8783213B1C4
:1041400000F51B7018477047000000240348D0F8A2
:10415000983213B100F5237018477047000000240F
:104160000348D0F8B83213B100F52B7018477047E8
:10417000000000240348D0F8D83213B100F53370A2
:1041800018477047000000240348D0F8F83213B1F4
:1041900000F53B7018477047000000240348D0F832
:1041A000183313B100F5437018477047000000241E
:1041B0000348D0F8383313B100F54B7018477047F7
:1041C0000000002410B51C46436884466FF30F03BB
:1041D00023434360036843F001030360036843F42F
:1041E00000730360FCB140F2E930DCF814309B0747
:1041F0002BD58AB312F8013B40F2E9308CF820301D
:10420000DCF81430DB0706D40138F9D16046FCF73E
:1042100009FF002010BD9CF83000C0B209B101F8C0
:10422000010B013CDFD1DCF814301B07FBD5DCF8B7
:104230001830012043F01003CCF81830DCF80030BF
:1042400023F00103CCF8003010BD0138CDD1604619
:10425000FCF7E8FE0020DDE7FF23CDE708B5204BA3
:1042600098420ED003F5806398420AD01D4A03F5A8
:104270008043984218BF904203D003F58063984270
:104280001BD1FDF75DFE1849184BCA69C969C2F315
:104290000222C1F302211A4492F8302002F01F02D8
:1042A000D040114A1269C2F3C03241EAC20213443B
:1042B00093F8583003FB00F008BDFDF741FE0A49B2
:1042C0000A4BCA69C969C2F3021CC1F3021103EBAC
:1042D0000C0292F8302002F01F02D040E1E700BF4C
:1042E00000000140004001400044025880A00B083B
:1042F000024B0348D3F8B815FDF762B9802B0024B0
:1043000000000140034B4FF08040D3F8BC15FDF78F
:1043100057B900BF802B0024024B0348D3F8C015C7
:10432000FDF74EB9802B002400040040024B0348E7
:10433000D3F8C415FDF744B9802B002400080040D1
:10434000024B0348D3F8C815FDF73AB9802B002477
:10435000000C0040024B0348D3F8D415FDF730B9E8
:10436000802B002400040140024B0348D3F8E415DD
:10437000FDF726B9802B002400180040024B0348AB
:10438000D3F8F015FDF71CB9802B00240040014044
:10439000024B0348D3F8F415FDF712B9802B002423
:1043A00000440140024B0348D3F8F815FDF708B963
:1043B000802B00240048014010B5064C0648D4F874
:1043C000D415FDF7FDF8D4F8E8150448BDE8104011
:1043D000FDF7F6B8802B002400040140001C0040CB
:1043E00010B5064C0648D4F8D415FDF7E9F8D4F812
:1043F000EC150448BDE81040FDF7E2B8802B00241E
:104400000004014000200040BFF34F8F0549064BD8
:10441000CA6802F4E0621343CB60BFF34F8F00BF62
:10442000FDE700BF00ED00E00400FA0500210120D7
:1044300008B508F099FA72B6FFF7E6FF2DE9F043E8
:10444000BFB0BFF35F8FA14C0023626A22F48032B9
:104450006262C4F894309DF843109DF844C0090688
:104460009DF842200F9841EA0C7141EAC2419DF843
:10447000452041EA82419DF8462041EA42419DF8AB
:10448000472041EA02419DF8412041EA02219DF87E
:10449000402041EA4201C4F898300133D4F8A0200A
:1044A000112B22F00102C4F8A020C4F89C00C4F82B
:1044B000A010F0D10523C4F89430636A43F480332C
:1044C0006362BFF34F8FBFF36F8F8148814A824988
:1044D000121A75F027F8814B5A6D012A00F0DF801F
:1044E000D4F8881000227E4B012041F47001C4F8FA
:1044F000881018601A61196841F080011960196804
:1045000001431960196841F480311960196841F458
:10451000805119609A61DA611A629A62DA621A63EA
:104520005A639A63DA631A645A64196821F4802121
:1045300019601A664FF000636A49C1F80801A36068
:104540006FF0E4FE684AD36813F0040FD36840F0BC
:104550009480664B0021644A0591D96A21F00101DB
:10456000D962DB6A03F001030593936943F4404386
:104570009361936903F440430593059B9369980401
:10458000FCD54C2200210EA8594C75F079FB594AF4
:1045900042F20303A4F110011268B3EB124F4FF083
:1045A00000024FF0040308BF0C460892E268A370B3
:1045B000002A4FD04D4BD96A21F00101D962DB6A44
:1045C000494903F0010308938B6923F440431343E3
:1045D0008B618B6903F440430893089B424A9369BB
:1045E0009904FCD53E4B4FF4403543480321D3F8A2
:1045F000E02042F08002C3F8E0200122D3F8E0304E
:1046000003F080030793079B85610D9BCDE90013A1
:1046100000236FF007FD022301204FF48031A288B0
:10462000CDE9173304231993A379CDE90E01E0797D
:10463000217A1C900EA81D91CDE91A23082200238F
:10464000CDE91E23FCF70EF9032800F0498200286B
:1046500058D0FEE7244A254B916941F440419161CD
:10466000926902F440420892DA6A42F00102DA6288
:10467000DB6A03F001030893AFE723F007031F4C45
:1046800043F00203D360216805E023685B1AB3F5A9
:104690007A7F3FF65EAF53689D04F6D559E7104A1E
:1046A000002017495865D2F8F43043F00203C2F8ED
:1046B000F430D2F8F43003F002030E930E9B0B6833
:1046C00083F308884B689847FEE700BF00ED00E0E1
:1046D0000000000090340000BCC20C0800400058EC
:1046E000004402580080005100480258000400585D
:1046F0005C0300240010005C001C0258802B002486
:104700000098F01F764B1A6812F00E0F0BD11A6842
:1047100022F00F0242F002021A601B6803F00F033E
:10472000022B40F0DF816F4A936903F070033F2B47
:1047300005D8936923F0700343F040039361694AFD
:10474000D36903F070033F2B05D8D36923F07003BE
:1047500043F04003D361634AD36903F4E063B3F5E4
:10476000806F05D2D36923F4E06343F48063D3619F
:104770005C4A136A03F070033F2B05D8136A23F0D9
:10478000700343F040031362564B9A69120705D435
:104790009A6922F00F0242F008029A61514A936925
:1047A00023F47063936113689B0130D5136941F260
:1047B00088314D4C23F0070343F003031361206855
:1047C00004E023681B1A8B4200F29581136903F001
:1047D0003803182BF5D1936903F00F03082B05D983
:1047E000936923F00F0343F0080393613C4A136875
:1047F00003F00F03022B0BD9136823F00F0343F0D0
:1048000002031360136803F00F03022B00D0FEE7CE
:10481000344A936903F07003402B05D9936923F060
:10482000700343F0400393612E4AD36903F0700391
:10483000402B05D9D36923F0700343F04003D361C3
:10484000284AD36903F4E063B3F5806F05D9D369CF
:1048500023F4E06343F48063D361224A136A03F0D4
:104860007003402B00F23F811E4EFDF747FB1F4DAA
:10487000B269B369C2F303221D4B134493F830307D
:1048800003F01F0320FA03F3D5F82401C5F8203103
:10489000FDF7C0F9002840F075811023159017909E
:1048A0000EA80E93FBF7DEFF002840F01881336856
:1048B000104A43F080033360D6F8F43043F002032B
:1048C000C6F8F430D6F8F43003F002030493049BE6
:1048D000136A43F001031362074B216811E000BF24
:1048E0000020005200440258802B002400000024C5
:1048F00080A00B080004005880380100013B00F044
:10490000EF8022689142F9D0226823689B1A0A2B13
:10491000FBD900214FF480209B4C4FF4401300261C
:1049200000273093CDE90E010EA86EF0BFFCD4F83D
:10493000EC30964941F2030243F002030EA8C4F89A
:10494000EC30D4F8EC3003F002030393039BD4F86B
:10495000943043F00203C4F89430D4F8943023F038
:104960000203C4F894300B688949B2EB134F894BAA
:10497000894A28BF0A465A601A6822F47C5242F4D7
:1049800000521A601A6842F060021A600322002383
:10499000CDE92C67CDE90E236EF088FC4FF4E042A0
:1049A00000230EA8CDE9266700270326CDE90E23B4
:1049B0003A976EF07BFC182200230EA82F973497AD
:1049C000CDE90E236EF072FCD4F8E0304FF4807124
:1049D000724843F00103C4F8E030D4F8E03003F04B
:1049E000010309933B46099A0222CDE900676FF063
:1049F00019FB23694FF40071694823F0FE7343F0FB
:104A000088732361D4F8E03043F00403C4F8E03045
:104A10003B46D4F8E02002F004020692069A0222F5
:104A2000CDE900676FF0FEFA236923F07E4343F07F
:104A3000FC432361FDF762FAC5F82001BFF35F8FE5
:104A4000584C3E46584D4FF00108636A23F48033BA
:104A50006362C4F8947027E0002A4BD02F686B7A09
:104A6000103515F8061C1B0643EA017343EA42039E
:104A700015F8052C43EA824315F8042C43EA424317
:104A800015F8032CC4F8986043EA0243D4F8A02038
:104A900043F0010322F00102C4F8A020C4F89C7086
:104AA000C4F8A03046BB01266B682A7A002BD3D00D
:104AB0002F68002AD3D127F01F02A3EB0209B9F116
:104AC000200F38BF4FF02009484674F009FF421EFE
:104AD00008FA02F1894508BF0246D2B2BFE7FEE7F5
:104AE000FFF7A4FC93E6136A23F0700343F040033E
:104AF0001362B9E6FEE78AE60523C4F89430636AD8
:104B000043F480336362BFF34F8FBFF36F8FBFF304
:104B10004F8FBFF36F8F0022C4F85022BFF34F8F27
:104B2000BFF36F8F636943F400336361BFF34F8F4B
:104B3000BFF36F8FC4F88420BFF34F8FD4F8805039
:104B400043F6E0761749C5F34E34C5F3C905640151
:104B500004EA06002B4640EA8372013BC1F860225A
:104B6000F9D2203C14F1200FF2D1BFF34F8F4B69E3
:104B700043F480334B61BFF34F8FBFF36F8F3FB070
:104B8000BDE8F08343E600BF004402580010005C1B
:104B90007FBB2200008400407FBB2230000002580F
:104BA0000008025800ED00E06C0300242DE9F843F2
:104BB000374E984606EB80039C6E002C65D004F1BE
:104BC000D20388360546B4F8D202A36104F5E9732E
:104BD00066601746E3614FF48073261DE160C4E907
:104BE00004332368C4F8CC30A36300284AD194F876
:104BF000D10005F089FF18F0080F94F8D09034D157
:104C0000BA0723D4FB0711D4052194F8D60267F024
:104C10008BFC94F8D63201221E4903F01F005B0979
:104C2000824041F823203046BDE8F88301354846EC
:104C300005F06AFFEDB218B140F206630572C38059
:104C400094F8D422022105F03DFFDDE76B1CDBB2B6
:104C500018B1037240F20653C38094F8D5220221A2
:104C600005F030FFFB07CFD5E0E70135EDB218B115
:104C700040F206730572C38094F8D522022105F034
:104C800021FFC1E767F01CFBB1E72646CBE700BF79
:104C900080A00B0800E100E00148FDF71FBF00BF46
:104CA000900300240148FDF719BF00BF68060024E7
:104CB0000148FDF713BF00BF400900240148FDF77C
:104CC0000DBF00BF180C00240148FDF707BF00BF4F
:104CD000F00E00240148FDF701BF00BFC8110024F9
:104CE0000148FDF7FBBE00BFA014002470B52422CC
:104CF000456B00238168C0F8BC2004462A6800F197
:104D0000340622F001022A602B606B60AB6082796E
:104D1000C0F8C43080F8B830C0F8BC30C364C0F804
:104D2000C0304365C0F8A030C0F8A430930281635E
:104D300003F480534179C363130303F40053036402
:104D4000130203F480634364C36D01F00200C907DA
:104D500045D400287ED1A06412F0080254D0D4F8C3
:104D6000BC20002A00F08A802422C4F8BC202A68D3
:104D700022F001022A60002B7CD13046FDF754FA64
:104D8000012812D06B68304623F490436B60AB6807
:104D900023F02203AB60AB6843F00803AB602B68E1
:104DA00043F001032B606EF001F96279D6070DD54F
:104DB000D4F8C830196841F480711960996841F0DD
:104DC00001019960196841F020011960950705D526
:104DD000D4F8C820136843F08003136070BD042129
:104DE000A16470B30C21D007A164B5D54FF4803114
:104DF00043F00203616643F001034FF40031E365C1
:104E0000216612F00802AAD1D4F8BC1009B194F8B6
:104E1000B82084F8B8202422C4F8BC202A6822F0E4
:104E200001022A6013BB3046FDF7FEF90128BCD011
:104E30006B68304623F490436B60AB6823F02A0321
:104E4000ACE7D10788D543F002034FF48031E36526
:104E5000616681E70821A164D1077FF57DAF43F04A
:104E600001034FF40031E3652166CAE73046FCF7E1
:104E70002DF8D8E73046FCF729F87EE784F8B8200B
:104E800072E700BF816031E741712FE781712DE743
:104E90002DE9F04F1C2087B005F036FE04461121A5
:104EA00002F04AF9002C00F03381A388C820226860
:104EB0001B0493610AF020FD2368A2881B209A61DD
:104EC00005F022FE20B140F20F120023C2800372CF
:104ED00040F20F220023E2802372C24C0122C24B17
:104EE000002684F8A8220922C4F8C0324FF0022319
:104EF00084F8F42504F10C02BC4DC4F8F63504F531
:104F0000BE63C4F8D02A94F8852AC4F8D432C4F811
:104F1000C46202F0FF03C4F8D062C4F8DC622673F6
:104F2000C4F8F055A4F8FE65C4F8FA65002A00F04C
:104F3000BE80032384F8853AAB6823F00103AB609D
:104F400094F8F93594F8FD25012B94F8001640F0FB
:104F50009F80AB6B012923F48033AB63A44BEA68D9
:104F600003EA0203EB60EB6823F44013EB6000F00C
:104F70008A812846FCF730F8012E63D0002872D0D1
:104F8000022384F8853A802100239A4A6962ADF8A9
:104F90000A306B6A43F48003AB626B6AA96A03EB65
:104FA000114302F5D361D2F8C42643F40003C5F8D7
:104FB0000431C4F8C41222B10DF10A009047C4F8BC
:104FC000DC02D4F8E412D4F8D4220131D4F8E0326F
:104FD0008948C4F8E41204EB830392F89414C3F8EC
:104FE000D0020129136816D0D968490622D49968DD
:104FF00003F5006041F001019960D3F8001E21F033
:105000000301C3F8001E0021D3F8043823F0020383
:10501000436082F89414794A002579496420D36862
:1050200043F08073C4E9BD15D36007B0BDE8F04F0D
:105030000AF062BC517B0129D9D1996B41F48031CE
:105040009963D4E7EB6D9BB2EB656E4BEA6D13434E
:10505000EB65AB6843F00603AB60AB6843F020033D
:10506000AB6000288CD1EB6823F0C043EB60EB68A9
:1050700043F08043EB60226823689B1A0A2BFBD91C
:105080006A690A3012F0010250D0C828F3D177E7DC
:10509000EB68284643F04003EB60FBF79DFFAB6BEA
:1050A000002A40F0EC8043F48033AB6364E7564D54
:1050B0000A2084F8843A0321D5F8E02042F0010266
:1050C000C5F8E020D5F8E02002F0010204920222A7
:1050D000CDE900104FF4C05104984C486EF0A2FF87
:1050E000D5F8D8300621652043F00063C5F8D830E4
:1050F000D5F8D83003F000630393039B67F014FAEC
:10510000434B2022D4F8F05594F8F665DA6010E7A6
:10511000C8200AF0F1FB1B2005F0F6FC00283FF444
:10512000DCAE40F20F130472C380D6E6C8283FF409
:1051300027AF94F8F4752FB3364B10464FF00108A3
:105140009446194608758646C885013081F8158051
:10515000874281F818C0C1E907CC41F824CFF1D1CA
:1051600000200146864583F8540283F8551200F169
:10517000010083F85812C3F86412C3E9971103F1D0
:105180002403EFD1002394F8F7E594F8F9C594F8D7
:10519000FA95184694F8FE8503F14001013305EBBA
:1051A00081010F2B4860F7D105F5006AB8F1000FB7
:1051B0006ED0AB6B43F40013AB630023BCF1010F63
:1051C000C5F8003ED5F8003800F0EC8043F003034A
:1051D000C5F8003810212846FBF7D6FE00230593BA
:1051E0001EE000BF802B002474170024000008403C
:1051F000BFFFBDFFF8100024C81700240048025864
:10520000A11104080000EE030044025800000258F7
:1052100000E100E0703100242B69002BC0F2AC806B
:10522000059B01330593059BB3F1706FF4D94FF0E3
:10523000010E0021CAF81010CAF81410CAF81C1088
:10524000002F3DD0D5F8000905F51063002832DBAA
:10525000002018604FF0000C4FF67F300131C3F88A
:1052600010C098602033B94267D0D3F800B0BBF1CA
:10527000000FEDDA4FF0904BC3F800B0EEE723F4E7
:105280008033AB6378E6EB6843F48013EB6070E641
:10529000DAF8043043F00203CAF80430AB6B23F4AD
:1052A0000013AB632B6843F040032B602B6843F083
:1052B00080032B6081E74FF00060C5F80009C9E763
:1052C000DAF8103023F48073CAF810300023AB6191
:1052D0006FF080436B611EB9AB6943F01003AB61A3
:1052E000AA693B4B1343AB61B9F1000F03D0AB6923
:1052F00043F00803AB61B8F1010F19D0BEF1000F04
:105300007FF43EAE012384F801E684F8853A94F8F0
:10531000FC35012B4FD0D5F8003E23F00303C5F830
:10532000003EDAF8043043F00203CAF804302AE6FB
:10533000AA69284B1343AB61E0E7D5F8001B05F5DC
:105340003063002913DB002119604FF0000C4FF689
:105350007F300132C3F810C098602033BA42AFD01A
:1053600019680029EFDA4FF090411960F1E74FF02A
:105370000061C5F8001BE8E70023059310232B61AB
:1053800002E02B69DB0607D5059B01330593059BDE
:10539000B3F1706FF5D94AE7B0F1000E18BF4FF0C6
:1053A000010E46E7BEF1000F3FF412AF43F00103D8
:1053B000C5F800380EE784F8BCEAAA69C4F8C83A10
:1053C00042F00062044BAA616A6D13436B65A2E769
:1053D00000383C8004000040030000102DE9F04F2D
:1053E000DFF8F0B38BB0DBF8F0A5DAF8143013F087
:1053F000010902D00BB0BDE8F08FDAF81420DAF81A
:1054000018301A42F6D0DAF808280AF50061DAF8FE
:105410001430C2F30D220291CBF8C42ADAF8182016
:1054200013409D0705D5DAF8143003F00203CAF8DB
:105430001430DAF81430DAF818201340DC061BD5E3
:10544000DAF8183023F01003CAF81830DAF82030F0
:1054500003F4F01203F00F05B2F5802F00F066851B
:10546000B2F5402F00F04383CDF804A0019A936970
:1054700043F01003936101E0CDF804A0019A536951
:1054800092691340180300F1BA82019A5369926934
:1054900013405F0300F1F081019B5A699B691A4236
:1054A00000F1EA80019A5369926913401B0509D5FE
:1054B000029B9B68DF0700F18185019A536903F421
:1054C0000063536101994B698A6913401E0116D527
:1054D0004B6903F000634B619BF8BC3A002B00F072
:1054E000E082DBF8D03A93F89C22042A04D093F8A7
:1054F0009C22D2B283F89D22042283F89C22019A36
:10550000536992691340DD0400F16681019A536981
:10551000926913409C0400F1D780019A5369926903
:105520001340190700F1C38001994B698A69134040
:105530001A067DD44B698A691340DB0228D59BF893
:10554000F485B8F1010F1ED9A14D0AF512670126A5
:1055500004E0013620372435464514D095F83C3018
:105560003A68012BF5D1002AF3DA66F07F0085F85E
:105570003B30C0B267F004F8EBE7019A53699269D7
:105580001340DA0204D5019A536903F4801353617E
:10559000019A5369926913409F0231D59BF8F475C3
:1055A000012F28D90AF53262894B012103E0B94263
:1055B00003F124031FD093F87C02013114682032D8
:1055C0000128F4D1002CF2DADBF8C45A85EA14453C
:1055D000EE07ECD483F87B02DAF8180040F0800084
:1055E000CAF81800DAF814000506E0D4029A5368E5
:1055F00043F400735360019A536903F40013536139
:10560000019A5369926913405C0000F1DA800199B4
:105610004B698A69134058077FF5ECAE4C68610707
:1056200000F1DC84DBF8F0355A6814435C60E1E695
:10563000DAF818309BF8F48523F08003B8F1010FF5
:10564000CAF8183099D9624D01262F4603E0013679
:105650002437464507D097F87B32012BF7D1F0B2BB
:1056600066F08EFFF3E7019B5A699B691340DB02EA
:105670008ED59BF8F48568E7029A536823F00103FE
:1056800053609BF8BC3A012B00F01F82DBF8D03A44
:1056900093F89C22042A04D193F89D22D2B283F875
:1056A0009C22019A536903F000435361FAE6DBF848
:1056B000D00A90F89C32032B00F00B82019A5369B8
:1056C00003F0080353612FE7019AD2F800396FF312
:1056D0000A03C2F8003902F50063D2F8042842F444
:1056E00080725A609B68980700F1158213F0060FCC
:1056F0000CBF00230F238BF8F735FCF721FC9BF838
:10570000F785B8F1020F00F08B844FF41053019924
:10571000B8F10008DBF8D05ACA6818BF4FF001088A
